{
  "contractName": "TreasureGuardian",
  "abi": [
    {
      "inputs": [],
      "stateMutability": "nonpayable",
      "type": "constructor"
    },
    {
      "anonymous": false,
      "inputs": [
        {
          "indexed": true,
          "internalType": "address",
          "name": "previousOwner",
          "type": "address"
        },
        {
          "indexed": true,
          "internalType": "address",
          "name": "newOwner",
          "type": "address"
        }
      ],
      "name": "OwnershipTransferred",
      "type": "event"
    },
    {
      "inputs": [],
      "name": "forgeMaster",
      "outputs": [
        {
          "internalType": "contract ForgeMaster",
          "name": "",
          "type": "address"
        }
      ],
      "stateMutability": "view",
      "type": "function",
      "constant": true
    },
    {
      "inputs": [
        {
          "internalType": "address",
          "name": "",
          "type": "address"
        },
        {
          "internalType": "address",
          "name": "",
          "type": "address"
        },
        {
          "internalType": "uint256[]",
          "name": "",
          "type": "uint256[]"
        },
        {
          "internalType": "uint256[]",
          "name": "",
          "type": "uint256[]"
        },
        {
          "internalType": "bytes",
          "name": "",
          "type": "bytes"
        }
      ],
      "name": "onERC1155BatchReceived",
      "outputs": [
        {
          "internalType": "bytes4",
          "name": "",
          "type": "bytes4"
        }
      ],
      "stateMutability": "nonpayable",
      "type": "function"
    },
    {
      "inputs": [
        {
          "internalType": "address",
          "name": "",
          "type": "address"
        },
        {
          "internalType": "address",
          "name": "",
          "type": "address"
        },
        {
          "internalType": "uint256",
          "name": "",
          "type": "uint256"
        },
        {
          "internalType": "uint256",
          "name": "",
          "type": "uint256"
        },
        {
          "internalType": "bytes",
          "name": "",
          "type": "bytes"
        }
      ],
      "name": "onERC1155Received",
      "outputs": [
        {
          "internalType": "bytes4",
          "name": "",
          "type": "bytes4"
        }
      ],
      "stateMutability": "nonpayable",
      "type": "function"
    },
    {
      "inputs": [],
      "name": "owner",
      "outputs": [
        {
          "internalType": "address",
          "name": "",
          "type": "address"
        }
      ],
      "stateMutability": "view",
      "type": "function",
      "constant": true
    },
    {
      "inputs": [],
      "name": "renounceOwnership",
      "outputs": [],
      "stateMutability": "nonpayable",
      "type": "function"
    },
    {
      "inputs": [
        {
          "internalType": "bytes4",
          "name": "interfaceId",
          "type": "bytes4"
        }
      ],
      "name": "supportsInterface",
      "outputs": [
        {
          "internalType": "bool",
          "name": "",
          "type": "bool"
        }
      ],
      "stateMutability": "view",
      "type": "function",
      "constant": true
    },
    {
      "inputs": [
        {
          "internalType": "address",
          "name": "newOwner",
          "type": "address"
        }
      ],
      "name": "transferOwnership",
      "outputs": [],
      "stateMutability": "nonpayable",
      "type": "function"
    },
    {
      "inputs": [],
      "name": "CreateStuff",
      "outputs": [],
      "stateMutability": "nonpayable",
      "type": "function"
    },
    {
      "inputs": [],
      "name": "BalanceOf",
      "outputs": [
        {
          "internalType": "uint256",
          "name": "",
          "type": "uint256"
        }
      ],
      "stateMutability": "nonpayable",
      "type": "function"
    }
  ],
  "bytecode": "0x608060405234801561001057600080fd5b5061002d61002261009b60201b60201c565b6100a360201b60201c565b60405161003990610167565b604051809103906000f080158015610055573d6000803e3d6000fd5b50600160006101000a81548173ffffffffffffffffffffffffffffffffffffffff021916908373ffffffffffffffffffffffffffffffffffffffff160217905550610174565b600033905090565b60008060009054906101000a900473ffffffffffffffffffffffffffffffffffffffff169050816000806101000a81548173ffffffffffffffffffffffffffffffffffffffff021916908373ffffffffffffffffffffffffffffffffffffffff1602179055508173ffffffffffffffffffffffffffffffffffffffff168173ffffffffffffffffffffffffffffffffffffffff167f8be0079c531659141344cd1fd0a4f28419497f9722a3daafe3b4186f6b6457e060405160405180910390a35050565b61309680610f9283390190565b610e0f806101836000396000f3fe608060405234801561001057600080fd5b50600436106100935760003560e01c80639a3174a0116100665780639a3174a0146100fa578063bc197c8114610118578063f23a6e6114610148578063f2fde38b14610178578063f9de843f1461019457610093565b806301ffc9a7146100985780630d8e4f45146100c8578063715018a6146100d25780638da5cb5b146100dc575b600080fd5b6100b260048036038101906100ad9190610694565b6101b2565b6040516100bf91906106dc565b60405180910390f35b6100d061022c565b005b6100da6102b8565b005b6100e46102cc565b6040516100f19190610738565b60405180910390f35b6101026102f5565b60405161010f919061076c565b60405180910390f35b610132600480360381019061012d91906109ed565b6103a1565b60405161013f9190610acb565b60405180910390f35b610162600480360381019061015d9190610ae6565b6103b6565b60405161016f9190610acb565b60405180910390f35b610192600480360381019061018d9190610b7d565b6103cb565b005b61019c61044e565b6040516101a99190610c09565b60405180910390f35b60007f4e2312e0000000000000000000000000000000000000000000000000000000007bffffffffffffffffffffffffffffffffffffffffffffffffffffffff1916827bffffffffffffffffffffffffffffffffffffffffffffffffffffffff19161480610225575061022482610474565b5b9050919050565b6102346104de565b600160009054906101000a900473ffffffffffffffffffffffffffffffffffffffff1673ffffffffffffffffffffffffffffffffffffffff16633fbd992c6040518163ffffffff1660e01b8152600401600060405180830381600087803b15801561029e57600080fd5b505af11580156102b2573d6000803e3d6000fd5b50505050565b6102c06104de565b6102ca600061055c565b565b60008060009054906101000a900473ffffffffffffffffffffffffffffffffffffffff16905090565b6000600160009054906101000a900473ffffffffffffffffffffffffffffffffffffffff1673ffffffffffffffffffffffffffffffffffffffff1662fdd58e61033c6102cc565b600a6040518363ffffffff1660e01b815260040161035b929190610c5f565b602060405180830381865afa158015610378573d6000803e3d6000fd5b505050506040513d601f19601f8201168201806040525081019061039c9190610c9d565b905090565b600063bc197c8160e01b905095945050505050565b600063f23a6e6160e01b905095945050505050565b6103d36104de565b600073ffffffffffffffffffffffffffffffffffffffff168173ffffffffffffffffffffffffffffffffffffffff1603610442576040517f08c379a000000000000000000000000000000000000000000000000000000000815260040161043990610d4d565b60405180910390fd5b61044b8161055c565b50565b600160009054906101000a900473ffffffffffffffffffffffffffffffffffffffff1681565b60007f01ffc9a7000000000000000000000000000000000000000000000000000000007bffffffffffffffffffffffffffffffffffffffffffffffffffffffff1916827bffffffffffffffffffffffffffffffffffffffffffffffffffffffff1916149050919050565b6104e6610620565b73ffffffffffffffffffffffffffffffffffffffff166105046102cc565b73ffffffffffffffffffffffffffffffffffffffff161461055a576040517f08c379a000000000000000000000000000000000000000000000000000000000815260040161055190610db9565b60405180910390fd5b565b60008060009054906101000a900473ffffffffffffffffffffffffffffffffffffffff169050816000806101000a81548173ffffffffffffffffffffffffffffffffffffffff021916908373ffffffffffffffffffffffffffffffffffffffff1602179055508173ffffffffffffffffffffffffffffffffffffffff168173ffffffffffffffffffffffffffffffffffffffff167f8be0079c531659141344cd1fd0a4f28419497f9722a3daafe3b4186f6b6457e060405160405180910390a35050565b600033905090565b6000604051905090565b600080fd5b600080fd5b60007fffffffff0000000000000000000000000000000000000000000000000000000082169050919050565b6106718161063c565b811461067c57600080fd5b50565b60008135905061068e81610668565b92915050565b6000602082840312156106aa576106a9610632565b5b60006106b88482850161067f565b91505092915050565b60008115159050919050565b6106d6816106c1565b82525050565b60006020820190506106f160008301846106cd565b92915050565b600073ffffffffffffffffffffffffffffffffffffffff82169050919050565b6000610722826106f7565b9050919050565b61073281610717565b82525050565b600060208201905061074d6000830184610729565b92915050565b6000819050919050565b61076681610753565b82525050565b6000602082019050610781600083018461075d565b92915050565b61079081610717565b811461079b57600080fd5b50565b6000813590506107ad81610787565b92915050565b600080fd5b6000601f19601f8301169050919050565b7f4e487b7100000000000000000000000000000000000000000000000000000000600052604160045260246000fd5b610801826107b8565b810181811067ffffffffffffffff821117156108205761081f6107c9565b5b80604052505050565b6000610833610628565b905061083f82826107f8565b919050565b600067ffffffffffffffff82111561085f5761085e6107c9565b5b602082029050602081019050919050565b600080fd5b61087e81610753565b811461088957600080fd5b50565b60008135905061089b81610875565b92915050565b60006108b46108af84610844565b610829565b905080838252602082019050602084028301858111156108d7576108d6610870565b5b835b8181101561090057806108ec888261088c565b8452602084019350506020810190506108d9565b5050509392505050565b600082601f83011261091f5761091e6107b3565b5b813561092f8482602086016108a1565b91505092915050565b600080fd5b600067ffffffffffffffff821115610958576109576107c9565b5b610961826107b8565b9050602081019050919050565b82818337600083830152505050565b600061099061098b8461093d565b610829565b9050828152602081018484840111156109ac576109ab610938565b5b6109b784828561096e565b509392505050565b600082601f8301126109d4576109d36107b3565b5b81356109e484826020860161097d565b91505092915050565b600080600080600060a08688031215610a0957610a08610632565b5b6000610a178882890161079e565b9550506020610a288882890161079e565b945050604086013567ffffffffffffffff811115610a4957610a48610637565b5b610a558882890161090a565b935050606086013567ffffffffffffffff811115610a7657610a75610637565b5b610a828882890161090a565b925050608086013567ffffffffffffffff811115610aa357610aa2610637565b5b610aaf888289016109bf565b9150509295509295909350565b610ac58161063c565b82525050565b6000602082019050610ae06000830184610abc565b92915050565b600080600080600060a08688031215610b0257610b01610632565b5b6000610b108882890161079e565b9550506020610b218882890161079e565b9450506040610b328882890161088c565b9350506060610b438882890161088c565b925050608086013567ffffffffffffffff811115610b6457610b63610637565b5b610b70888289016109bf565b9150509295509295909350565b600060208284031215610b9357610b92610632565b5b6000610ba18482850161079e565b91505092915050565b6000819050919050565b6000610bcf610bca610bc5846106f7565b610baa565b6106f7565b9050919050565b6000610be182610bb4565b9050919050565b6000610bf382610bd6565b9050919050565b610c0381610be8565b82525050565b6000602082019050610c1e6000830184610bfa565b92915050565b6000819050919050565b6000610c49610c44610c3f84610c24565b610baa565b610753565b9050919050565b610c5981610c2e565b82525050565b6000604082019050610c746000830185610729565b610c816020830184610c50565b9392505050565b600081519050610c9781610875565b92915050565b600060208284031215610cb357610cb2610632565b5b6000610cc184828501610c88565b91505092915050565b600082825260208201905092915050565b7f4f776e61626c653a206e6577206f776e657220697320746865207a65726f206160008201527f6464726573730000000000000000000000000000000000000000000000000000602082015250565b6000610d37602683610cca565b9150610d4282610cdb565b604082019050919050565b60006020820190508181036000830152610d6681610d2a565b9050919050565b7f4f776e61626c653a2063616c6c6572206973206e6f7420746865206f776e6572600082015250565b6000610da3602083610cca565b9150610dae82610d6d565b602082019050919050565b60006020820190508181036000830152610dd281610d96565b905091905056fea2646970667358221220d93ce949d37a337ebec699d1696dc4f4a0adebd974ab4620a49f22b8b98eb9c864736f6c6343000812003360806040523480156200001157600080fd5b506040518060800160405280605a81526020016200303c605a91396200003d816200006460201b60201c565b506200005e620000526200007960201b60201c565b6200008160201b60201c565b620004a8565b8060029081620000759190620003c1565b5050565b600033905090565b6000600360009054906101000a900473ffffffffffffffffffffffffffffffffffffffff16905081600360006101000a81548173ffffffffffffffffffffffffffffffffffffffff021916908373ffffffffffffffffffffffffffffffffffffffff1602179055508173ffffffffffffffffffffffffffffffffffffffff168173ffffffffffffffffffffffffffffffffffffffff167f8be0079c531659141344cd1fd0a4f28419497f9722a3daafe3b4186f6b6457e060405160405180910390a35050565b600081519050919050565b7f4e487b7100000000000000000000000000000000000000000000000000000000600052604160045260246000fd5b7f4e487b7100000000000000000000000000000000000000000000000000000000600052602260045260246000fd5b60006002820490506001821680620001c957607f821691505b602082108103620001df57620001de62000181565b5b50919050565b60008190508160005260206000209050919050565b60006020601f8301049050919050565b600082821b905092915050565b600060088302620002497fffffffffffffffffffffffffffffffffffffffffffffffffffffffffffffffff826200020a565b6200025586836200020a565b95508019841693508086168417925050509392505050565b6000819050919050565b6000819050919050565b6000620002a26200029c62000296846200026d565b62000277565b6200026d565b9050919050565b6000819050919050565b620002be8362000281565b620002d6620002cd82620002a9565b84845462000217565b825550505050565b600090565b620002ed620002de565b620002fa818484620002b3565b505050565b5b81811015620003225762000316600082620002e3565b60018101905062000300565b5050565b601f82111562000371576200033b81620001e5565b6200034684620001fa565b8101602085101562000356578190505b6200036e6200036585620001fa565b830182620002ff565b50505b505050565b600082821c905092915050565b6000620003966000198460080262000376565b1980831691505092915050565b6000620003b1838362000383565b9150826002028217905092915050565b620003cc8262000147565b67ffffffffffffffff811115620003e857620003e762000152565b5b620003f48254620001b0565b6200040182828562000326565b600060209050601f83116001811462000439576000841562000424578287015190505b620004308582620003a3565b865550620004a0565b601f1984166200044986620001e5565b60005b8281101562000473578489015182556001820191506020850194506020810190506200044c565b868310156200049357848901516200048f601f89168262000383565b8355505b6001600288020188555050505b505050505050565b612b8480620004b86000396000f3fe608060405234801561001057600080fd5b50600436106100ce5760003560e01c8063715018a61161008c578063e985e9c511610066578063e985e9c5146101fd578063f242432a1461022d578063f2fde38b14610249578063f8a8fd6d14610265576100ce565b8063715018a6146101b95780638da5cb5b146101c3578063a22cb465146101e1576100ce565b8062fdd58e146100d357806301ffc9a7146101035780630e89341c146101335780632eb2c2d6146101635780633fbd992c1461017f5780634e1273f414610189575b600080fd5b6100ed60048036038101906100e89190611865565b610283565b6040516100fa91906118b4565b60405180910390f35b61011d60048036038101906101189190611927565b61034b565b60405161012a919061196f565b60405180910390f35b61014d6004803603810190610148919061198a565b61042d565b60405161015a9190611a47565b60405180910390f35b61017d60048036038101906101789190611c66565b6104c1565b005b610187610562565b005b6101a3600480360381019061019e9190611df8565b6105a6565b6040516101b09190611f2e565b60405180910390f35b6101c16106bf565b005b6101cb6106d3565b6040516101d89190611f5f565b60405180910390f35b6101fb60048036038101906101f69190611fa6565b6106fd565b005b61021760048036038101906102129190611fe6565b610713565b604051610224919061196f565b60405180910390f35b61024760048036038101906102429190612026565b6107a7565b005b610263600480360381019061025e91906120bd565b610848565b005b61026d6108cb565b60405161027a91906118b4565b60405180910390f35b60008073ffffffffffffffffffffffffffffffffffffffff168373ffffffffffffffffffffffffffffffffffffffff16036102f3576040517f08c379a00000000000000000000000000000000000000000000000000000000081526004016102ea9061215c565b60405180910390fd5b60008083815260200190815260200160002060008473ffffffffffffffffffffffffffffffffffffffff1673ffffffffffffffffffffffffffffffffffffffff16815260200190815260200160002054905092915050565b60007fd9b67a26000000000000000000000000000000000000000000000000000000007bffffffffffffffffffffffffffffffffffffffffffffffffffffffff1916827bffffffffffffffffffffffffffffffffffffffffffffffffffffffff1916148061041657507f0e89341c000000000000000000000000000000000000000000000000000000007bffffffffffffffffffffffffffffffffffffffffffffffffffffffff1916827bffffffffffffffffffffffffffffffffffffffffffffffffffffffff1916145b806104265750610425826108d4565b5b9050919050565b60606002805461043c906121ab565b80601f0160208091040260200160405190810160405280929190818152602001828054610468906121ab565b80156104b55780601f1061048a576101008083540402835291602001916104b5565b820191906000526020600020905b81548152906001019060200180831161049857829003601f168201915b50505050509050919050565b6104c961093e565b73ffffffffffffffffffffffffffffffffffffffff168573ffffffffffffffffffffffffffffffffffffffff16148061050f575061050e8561050961093e565b610713565b5b61054e576040517f08c379a00000000000000000000000000000000000000000000000000000000081526004016105459061224e565b60405180910390fd5b61055b8585858585610946565b5050505050565b61056a610c67565b61058733600a606460405180602001604052806000815250610ce5565b6105a4336014600560405180602001604052806000815250610ce5565b565b606081518351146105ec576040517f08c379a00000000000000000000000000000000000000000000000000000000081526004016105e3906122e0565b60405180910390fd5b6000835167ffffffffffffffff81111561060957610608611a6e565b5b6040519080825280602002602001820160405280156106375781602001602082028036833780820191505090505b50905060005b84518110156106b45761068485828151811061065c5761065b612300565b5b602002602001015185838151811061067757610676612300565b5b6020026020010151610283565b82828151811061069757610696612300565b5b602002602001018181525050806106ad9061235e565b905061063d565b508091505092915050565b6106c7610c67565b6106d16000610e95565b565b6000600360009054906101000a900473ffffffffffffffffffffffffffffffffffffffff16905090565b61070f61070861093e565b8383610f5b565b5050565b6000600160008473ffffffffffffffffffffffffffffffffffffffff1673ffffffffffffffffffffffffffffffffffffffff16815260200190815260200160002060008373ffffffffffffffffffffffffffffffffffffffff1673ffffffffffffffffffffffffffffffffffffffff16815260200190815260200160002060009054906101000a900460ff16905092915050565b6107af61093e565b73ffffffffffffffffffffffffffffffffffffffff168573ffffffffffffffffffffffffffffffffffffffff1614806107f557506107f4856107ef61093e565b610713565b5b610834576040517f08c379a000000000000000000000000000000000000000000000000000000000815260040161082b9061224e565b60405180910390fd5b61084185858585856110c7565b5050505050565b610850610c67565b600073ffffffffffffffffffffffffffffffffffffffff168173ffffffffffffffffffffffffffffffffffffffff16036108bf576040517f08c379a00000000000000000000000000000000000000000000000000000000081526004016108b690612418565b60405180910390fd5b6108c881610e95565b50565b60006063905090565b60007f01ffc9a7000000000000000000000000000000000000000000000000000000007bffffffffffffffffffffffffffffffffffffffffffffffffffffffff1916827bffffffffffffffffffffffffffffffffffffffffffffffffffffffff1916149050919050565b600033905090565b815183511461098a576040517f08c379a0000000000000000000000000000000000000000000000000000000008152600401610981906124aa565b60405180910390fd5b600073ffffffffffffffffffffffffffffffffffffffff168473ffffffffffffffffffffffffffffffffffffffff16036109f9576040517f08c379a00000000000000000000000000000000000000000000000000000000081526004016109f09061253c565b60405180910390fd5b6000610a0361093e565b9050610a13818787878787611362565b60005b8451811015610bc4576000858281518110610a3457610a33612300565b5b602002602001015190506000858381518110610a5357610a52612300565b5b60200260200101519050600080600084815260200190815260200160002060008b73ffffffffffffffffffffffffffffffffffffffff1673ffffffffffffffffffffffffffffffffffffffff16815260200190815260200160002054905081811015610af4576040517f08c379a0000000000000000000000000000000000000000000000000000000008152600401610aeb906125ce565b60405180910390fd5b81810360008085815260200190815260200160002060008c73ffffffffffffffffffffffffffffffffffffffff1673ffffffffffffffffffffffffffffffffffffffff168152602001908152602001600020819055508160008085815260200190815260200160002060008b73ffffffffffffffffffffffffffffffffffffffff1673ffffffffffffffffffffffffffffffffffffffff1681526020019081526020016000206000828254610ba991906125ee565b9250508190555050505080610bbd9061235e565b9050610a16565b508473ffffffffffffffffffffffffffffffffffffffff168673ffffffffffffffffffffffffffffffffffffffff168273ffffffffffffffffffffffffffffffffffffffff167f4a39dc06d4c0dbc64b70af90fd698a233a518aa5d07e595d983b8c0526c8f7fb8787604051610c3b929190612622565b60405180910390a4610c5181878787878761136a565b610c5f818787878787611372565b505050505050565b610c6f61093e565b73ffffffffffffffffffffffffffffffffffffffff16610c8d6106d3565b73ffffffffffffffffffffffffffffffffffffffff1614610ce3576040517f08c379a0000000000000000000000000000000000000000000000000000000008152600401610cda906126a5565b60405180910390fd5b565b600073ffffffffffffffffffffffffffffffffffffffff168473ffffffffffffffffffffffffffffffffffffffff1603610d54576040517f08c379a0000000000000000000000000000000000000000000000000000000008152600401610d4b90612737565b60405180910390fd5b6000610d5e61093e565b90506000610d6b85611549565b90506000610d7885611549565b9050610d8983600089858589611362565b8460008088815260200190815260200160002060008973ffffffffffffffffffffffffffffffffffffffff1673ffffffffffffffffffffffffffffffffffffffff1681526020019081526020016000206000828254610de891906125ee565b925050819055508673ffffffffffffffffffffffffffffffffffffffff16600073ffffffffffffffffffffffffffffffffffffffff168473ffffffffffffffffffffffffffffffffffffffff167fc3d58168c5ae7397731d063d5bbf3d657854427343f4c083240f7aacaa2d0f628989604051610e66929190612757565b60405180910390a4610e7d8360008985858961136a565b610e8c836000898989896115c3565b50505050505050565b6000600360009054906101000a900473ffffffffffffffffffffffffffffffffffffffff16905081600360006101000a81548173ffffffffffffffffffffffffffffffffffffffff021916908373ffffffffffffffffffffffffffffffffffffffff1602179055508173ffffffffffffffffffffffffffffffffffffffff168173ffffffffffffffffffffffffffffffffffffffff167f8be0079c531659141344cd1fd0a4f28419497f9722a3daafe3b4186f6b6457e060405160405180910390a35050565b8173ffffffffffffffffffffffffffffffffffffffff168373ffffffffffffffffffffffffffffffffffffffff1603610fc9576040517f08c379a0000000000000000000000000000000000000000000000000000000008152600401610fc0906127f2565b60405180910390fd5b80600160008573ffffffffffffffffffffffffffffffffffffffff1673ffffffffffffffffffffffffffffffffffffffff16815260200190815260200160002060008473ffffffffffffffffffffffffffffffffffffffff1673ffffffffffffffffffffffffffffffffffffffff16815260200190815260200160002060006101000a81548160ff0219169083151502179055508173ffffffffffffffffffffffffffffffffffffffff168373ffffffffffffffffffffffffffffffffffffffff167f17307eab39ab6107e8899845ad3d59bd9653f200f220920489ca2b5937696c31836040516110ba919061196f565b60405180910390a3505050565b600073ffffffffffffffffffffffffffffffffffffffff168473ffffffffffffffffffffffffffffffffffffffff1603611136576040517f08c379a000000000000000000000000000000000000000000000000000000000815260040161112d9061253c565b60405180910390fd5b600061114061093e565b9050600061114d85611549565b9050600061115a85611549565b905061116a838989858589611362565b600080600088815260200190815260200160002060008a73ffffffffffffffffffffffffffffffffffffffff1673ffffffffffffffffffffffffffffffffffffffff16815260200190815260200160002054905085811015611201576040517f08c379a00000000000000000000000000000000000000000000000000000000081526004016111f8906125ce565b60405180910390fd5b85810360008089815260200190815260200160002060008b73ffffffffffffffffffffffffffffffffffffffff1673ffffffffffffffffffffffffffffffffffffffff168152602001908152602001600020819055508560008089815260200190815260200160002060008a73ffffffffffffffffffffffffffffffffffffffff1673ffffffffffffffffffffffffffffffffffffffff16815260200190815260200160002060008282546112b691906125ee565b925050819055508773ffffffffffffffffffffffffffffffffffffffff168973ffffffffffffffffffffffffffffffffffffffff168573ffffffffffffffffffffffffffffffffffffffff167fc3d58168c5ae7397731d063d5bbf3d657854427343f4c083240f7aacaa2d0f628a8a604051611333929190612757565b60405180910390a4611349848a8a86868a61136a565b611357848a8a8a8a8a6115c3565b505050505050505050565b505050505050565b505050505050565b6113918473ffffffffffffffffffffffffffffffffffffffff1661179a565b15611541578373ffffffffffffffffffffffffffffffffffffffff1663bc197c8187878686866040518663ffffffff1660e01b81526004016113d7959493929190612867565b6020604051808303816000875af192505050801561141357506040513d601f19601f8201168201806040525081019061141091906128e4565b60015b6114b85761141f61291e565b806308c379a00361147b5750611433612940565b8061143e575061147d565b806040517f08c379a00000000000000000000000000000000000000000000000000000000081526004016114729190611a47565b60405180910390fd5b505b6040517f08c379a00000000000000000000000000000000000000000000000000000000081526004016114af90612a42565b60405180910390fd5b63bc197c8160e01b7bffffffffffffffffffffffffffffffffffffffffffffffffffffffff1916817bffffffffffffffffffffffffffffffffffffffffffffffffffffffff19161461153f576040517f08c379a000000000000000000000000000000000000000000000000000000000815260040161153690612ad4565b60405180910390fd5b505b505050505050565b60606000600167ffffffffffffffff81111561156857611567611a6e565b5b6040519080825280602002602001820160405280156115965781602001602082028036833780820191505090505b50905082816000815181106115ae576115ad612300565b5b60200260200101818152505080915050919050565b6115e28473ffffffffffffffffffffffffffffffffffffffff1661179a565b15611792578373ffffffffffffffffffffffffffffffffffffffff1663f23a6e6187878686866040518663ffffffff1660e01b8152600401611628959493929190612af4565b6020604051808303816000875af192505050801561166457506040513d601f19601f8201168201806040525081019061166191906128e4565b60015b6117095761167061291e565b806308c379a0036116cc5750611684612940565b8061168f57506116ce565b806040517f08c379a00000000000000000000000000000000000000000000000000000000081526004016116c39190611a47565b60405180910390fd5b505b6040517f08c379a000000000000000000000000000000000000000000000000000000000815260040161170090612a42565b60405180910390fd5b63f23a6e6160e01b7bffffffffffffffffffffffffffffffffffffffffffffffffffffffff1916817bffffffffffffffffffffffffffffffffffffffffffffffffffffffff191614611790576040517f08c379a000000000000000000000000000000000000000000000000000000000815260040161178790612ad4565b60405180910390fd5b505b505050505050565b6000808273ffffffffffffffffffffffffffffffffffffffff163b119050919050565b6000604051905090565b600080fd5b600080fd5b600073ffffffffffffffffffffffffffffffffffffffff82169050919050565b60006117fc826117d1565b9050919050565b61180c816117f1565b811461181757600080fd5b50565b60008135905061182981611803565b92915050565b6000819050919050565b6118428161182f565b811461184d57600080fd5b50565b60008135905061185f81611839565b92915050565b6000806040838503121561187c5761187b6117c7565b5b600061188a8582860161181a565b925050602061189b85828601611850565b9150509250929050565b6118ae8161182f565b82525050565b60006020820190506118c960008301846118a5565b92915050565b60007fffffffff0000000000000000000000000000000000000000000000000000000082169050919050565b611904816118cf565b811461190f57600080fd5b50565b600081359050611921816118fb565b92915050565b60006020828403121561193d5761193c6117c7565b5b600061194b84828501611912565b91505092915050565b60008115159050919050565b61196981611954565b82525050565b60006020820190506119846000830184611960565b92915050565b6000602082840312156119a05761199f6117c7565b5b60006119ae84828501611850565b91505092915050565b600081519050919050565b600082825260208201905092915050565b60005b838110156119f15780820151818401526020810190506119d6565b60008484015250505050565b6000601f19601f8301169050919050565b6000611a19826119b7565b611a2381856119c2565b9350611a338185602086016119d3565b611a3c816119fd565b840191505092915050565b60006020820190508181036000830152611a618184611a0e565b905092915050565b600080fd5b7f4e487b7100000000000000000000000000000000000000000000000000000000600052604160045260246000fd5b611aa6826119fd565b810181811067ffffffffffffffff82111715611ac557611ac4611a6e565b5b80604052505050565b6000611ad86117bd565b9050611ae48282611a9d565b919050565b600067ffffffffffffffff821115611b0457611b03611a6e565b5b602082029050602081019050919050565b600080fd5b6000611b2d611b2884611ae9565b611ace565b90508083825260208201905060208402830185811115611b5057611b4f611b15565b5b835b81811015611b795780611b658882611850565b845260208401935050602081019050611b52565b5050509392505050565b600082601f830112611b9857611b97611a69565b5b8135611ba8848260208601611b1a565b91505092915050565b600080fd5b600067ffffffffffffffff821115611bd157611bd0611a6e565b5b611bda826119fd565b9050602081019050919050565b82818337600083830152505050565b6000611c09611c0484611bb6565b611ace565b905082815260208101848484011115611c2557611c24611bb1565b5b611c30848285611be7565b509392505050565b600082601f830112611c4d57611c4c611a69565b5b8135611c5d848260208601611bf6565b91505092915050565b600080600080600060a08688031215611c8257611c816117c7565b5b6000611c908882890161181a565b9550506020611ca18882890161181a565b945050604086013567ffffffffffffffff811115611cc257611cc16117cc565b5b611cce88828901611b83565b935050606086013567ffffffffffffffff811115611cef57611cee6117cc565b5b611cfb88828901611b83565b925050608086013567ffffffffffffffff811115611d1c57611d1b6117cc565b5b611d2888828901611c38565b9150509295509295909350565b600067ffffffffffffffff821115611d5057611d4f611a6e565b5b602082029050602081019050919050565b6000611d74611d6f84611d35565b611ace565b90508083825260208201905060208402830185811115611d9757611d96611b15565b5b835b81811015611dc05780611dac888261181a565b845260208401935050602081019050611d99565b5050509392505050565b600082601f830112611ddf57611dde611a69565b5b8135611def848260208601611d61565b91505092915050565b60008060408385031215611e0f57611e0e6117c7565b5b600083013567ffffffffffffffff811115611e2d57611e2c6117cc565b5b611e3985828601611dca565b925050602083013567ffffffffffffffff811115611e5a57611e596117cc565b5b611e6685828601611b83565b9150509250929050565b600081519050919050565b600082825260208201905092915050565b6000819050602082019050919050565b611ea58161182f565b82525050565b6000611eb78383611e9c565b60208301905092915050565b6000602082019050919050565b6000611edb82611e70565b611ee58185611e7b565b9350611ef083611e8c565b8060005b83811015611f21578151611f088882611eab565b9750611f1383611ec3565b925050600181019050611ef4565b5085935050505092915050565b60006020820190508181036000830152611f488184611ed0565b905092915050565b611f59816117f1565b82525050565b6000602082019050611f746000830184611f50565b92915050565b611f8381611954565b8114611f8e57600080fd5b50565b600081359050611fa081611f7a565b92915050565b60008060408385031215611fbd57611fbc6117c7565b5b6000611fcb8582860161181a565b9250506020611fdc85828601611f91565b9150509250929050565b60008060408385031215611ffd57611ffc6117c7565b5b600061200b8582860161181a565b925050602061201c8582860161181a565b9150509250929050565b600080600080600060a08688031215612042576120416117c7565b5b60006120508882890161181a565b95505060206120618882890161181a565b945050604061207288828901611850565b935050606061208388828901611850565b925050608086013567ffffffffffffffff8111156120a4576120a36117cc565b5b6120b088828901611c38565b9150509295509295909350565b6000602082840312156120d3576120d26117c7565b5b60006120e18482850161181a565b91505092915050565b7f455243313135353a2061646472657373207a65726f206973206e6f742061207660008201527f616c6964206f776e657200000000000000000000000000000000000000000000602082015250565b6000612146602a836119c2565b9150612151826120ea565b604082019050919050565b6000602082019050818103600083015261217581612139565b9050919050565b7f4e487b7100000000000000000000000000000000000000000000000000000000600052602260045260246000fd5b600060028204905060018216806121c357607f821691505b6020821081036121d6576121d561217c565b5b50919050565b7f455243313135353a2063616c6c6572206973206e6f7420746f6b656e206f776e60008201527f6572206f7220617070726f766564000000000000000000000000000000000000602082015250565b6000612238602e836119c2565b9150612243826121dc565b604082019050919050565b600060208201905081810360008301526122678161222b565b9050919050565b7f455243313135353a206163636f756e747320616e6420696473206c656e67746860008201527f206d69736d617463680000000000000000000000000000000000000000000000602082015250565b60006122ca6029836119c2565b91506122d58261226e565b604082019050919050565b600060208201905081810360008301526122f9816122bd565b9050919050565b7f4e487b7100000000000000000000000000000000000000000000000000000000600052603260045260246000fd5b7f4e487b7100000000000000000000000000000000000000000000000000000000600052601160045260246000fd5b60006123698261182f565b91507fffffffffffffffffffffffffffffffffffffffffffffffffffffffffffffffff820361239b5761239a61232f565b5b600182019050919050565b7f4f776e61626c653a206e6577206f776e657220697320746865207a65726f206160008201527f6464726573730000000000000000000000000000000000000000000000000000602082015250565b60006124026026836119c2565b915061240d826123a6565b604082019050919050565b60006020820190508181036000830152612431816123f5565b9050919050565b7f455243313135353a2069647320616e6420616d6f756e7473206c656e6774682060008201527f6d69736d61746368000000000000000000000000000000000000000000000000602082015250565b60006124946028836119c2565b915061249f82612438565b604082019050919050565b600060208201905081810360008301526124c381612487565b9050919050565b7f455243313135353a207472616e7366657220746f20746865207a65726f20616460008201527f6472657373000000000000000000000000000000000000000000000000000000602082015250565b60006125266025836119c2565b9150612531826124ca565b604082019050919050565b6000602082019050818103600083015261255581612519565b9050919050565b7f455243313135353a20696e73756666696369656e742062616c616e636520666f60008201527f72207472616e7366657200000000000000000000000000000000000000000000602082015250565b60006125b8602a836119c2565b91506125c38261255c565b604082019050919050565b600060208201905081810360008301526125e7816125ab565b9050919050565b60006125f98261182f565b91506126048361182f565b925082820190508082111561261c5761261b61232f565b5b92915050565b6000604082019050818103600083015261263c8185611ed0565b905081810360208301526126508184611ed0565b90509392505050565b7f4f776e61626c653a2063616c6c6572206973206e6f7420746865206f776e6572600082015250565b600061268f6020836119c2565b915061269a82612659565b602082019050919050565b600060208201905081810360008301526126be81612682565b9050919050565b7f455243313135353a206d696e7420746f20746865207a65726f2061646472657360008201527f7300000000000000000000000000000000000000000000000000000000000000602082015250565b60006127216021836119c2565b915061272c826126c5565b604082019050919050565b6000602082019050818103600083015261275081612714565b9050919050565b600060408201905061276c60008301856118a5565b61277960208301846118a5565b9392505050565b7f455243313135353a2073657474696e6720617070726f76616c2073746174757360008201527f20666f722073656c660000000000000000000000000000000000000000000000602082015250565b60006127dc6029836119c2565b91506127e782612780565b604082019050919050565b6000602082019050818103600083015261280b816127cf565b9050919050565b600081519050919050565b600082825260208201905092915050565b600061283982612812565b612843818561281d565b93506128538185602086016119d3565b61285c816119fd565b840191505092915050565b600060a08201905061287c6000830188611f50565b6128896020830187611f50565b818103604083015261289b8186611ed0565b905081810360608301526128af8185611ed0565b905081810360808301526128c3818461282e565b90509695505050505050565b6000815190506128de816118fb565b92915050565b6000602082840312156128fa576128f96117c7565b5b6000612908848285016128cf565b91505092915050565b60008160e01c9050919050565b600060033d111561293d5760046000803e61293a600051612911565b90505b90565b600060443d106129cd576129526117bd565b60043d036004823e80513d602482011167ffffffffffffffff8211171561297a5750506129cd565b808201805167ffffffffffffffff81111561299857505050506129cd565b80602083010160043d0385018111156129b55750505050506129cd565b6129c482602001850186611a9d565b82955050505050505b90565b7f455243313135353a207472616e7366657220746f206e6f6e2d4552433131353560008201527f526563656976657220696d706c656d656e746572000000000000000000000000602082015250565b6000612a2c6034836119c2565b9150612a37826129d0565b604082019050919050565b60006020820190508181036000830152612a5b81612a1f565b9050919050565b7f455243313135353a204552433131353552656365697665722072656a6563746560008201527f6420746f6b656e73000000000000000000000000000000000000000000000000602082015250565b6000612abe6028836119c2565b9150612ac982612a62565b604082019050919050565b60006020820190508181036000830152612aed81612ab1565b9050919050565b600060a082019050612b096000830188611f50565b612b166020830187611f50565b612b2360408301866118a5565b612b3060608301856118a5565b8181036080830152612b42818461282e565b9050969550505050505056fea2646970667358221220683e82c2a00a75d0581c98c1be0558e82387935bd128f3c9cf951c2b0ebe645064736f6c6343000812003368747470733a2f2f676174657761792e70696e6174612e636c6f75642f697066732f516d57486f65796166737a6e5136514b71577655555a34736369764b68386a347934504d72796b3277386e4e34722f7b69647d2f6a736f6e",
  "immutableReferences": {},
  "source": "// SPDX-License-Identifier: MIT\r\npragma solidity ^0.8.18;\r\n\r\nimport \"../node_modules/@openzeppelin/contracts/token/ERC1155/ERC1155.sol\";\r\nimport \"../node_modules/@openzeppelin/contracts/utils/Counters.sol\";\r\nimport \"../node_modules/@openzeppelin/contracts/access/Ownable.sol\";\r\nimport \"../node_modules/@openzeppelin/contracts/token/ERC1155/utils/ERC1155Holder.sol\";\r\n\r\nimport \"./ForgeMaster.sol\";\r\n\r\ncontract TreasureGuardian is Ownable, ERC1155Holder {\r\n    ForgeMaster public forgeMaster;\r\n\r\n    constructor() {\r\n        forgeMaster = new ForgeMaster();\r\n    }\r\n\r\n    function CreateStuff() external onlyOwner {\r\n        forgeMaster.ForgeItems();\r\n    }\r\n\r\n    function BalanceOf() external returns (uint) {\r\n        return forgeMaster.balanceOf(owner(), 10);\r\n    }\r\n}\r\n",
  "sourcePath": "C:\\Users\\Alex\\Documents\\Travail\\Alyra\\NG-project\\Forge\\contracts\\TreasureGuardians.sol",
  "compiler": {
    "name": "solc",
    "version": "0.8.18+commit.87f61d96.Emscripten.clang"
  },
  "schemaVersion": "3.4.7",
  "updatedAt": "2023-03-30T18:28:06.797Z",
  "networkType": "ethereum",
  "devdoc": {
    "kind": "dev",
    "methods": {
      "owner()": {
        "details": "Returns the address of the current owner."
      },
      "renounceOwnership()": {
        "details": "Leaves the contract without owner. It will not be possible to call `onlyOwner` functions anymore. Can only be called by the current owner. NOTE: Renouncing ownership will leave the contract without an owner, thereby removing any functionality that is only available to the owner."
      },
      "supportsInterface(bytes4)": {
        "details": "See {IERC165-supportsInterface}."
      },
      "transferOwnership(address)": {
        "details": "Transfers ownership of the contract to a new account (`newOwner`). Can only be called by the current owner."
      }
    },
    "version": 1
  },
  "userdoc": {
    "kind": "user",
    "methods": {},
    "version": 1
  }
}