{
  "contractName": "AuctionHouse",
  "abi": [
    {
      "anonymous": false,
      "inputs": [
        {
          "indexed": true,
          "internalType": "address",
          "name": "previousOwner",
          "type": "address"
        },
        {
          "indexed": true,
          "internalType": "address",
          "name": "newOwner",
          "type": "address"
        }
      ],
      "name": "OwnershipTransferred",
      "type": "event"
    },
    {
      "inputs": [
        {
          "internalType": "address",
          "name": "",
          "type": "address"
        },
        {
          "internalType": "address",
          "name": "",
          "type": "address"
        },
        {
          "internalType": "uint256[]",
          "name": "",
          "type": "uint256[]"
        },
        {
          "internalType": "uint256[]",
          "name": "",
          "type": "uint256[]"
        },
        {
          "internalType": "bytes",
          "name": "",
          "type": "bytes"
        }
      ],
      "name": "onERC1155BatchReceived",
      "outputs": [
        {
          "internalType": "bytes4",
          "name": "",
          "type": "bytes4"
        }
      ],
      "stateMutability": "nonpayable",
      "type": "function"
    },
    {
      "inputs": [
        {
          "internalType": "address",
          "name": "",
          "type": "address"
        },
        {
          "internalType": "address",
          "name": "",
          "type": "address"
        },
        {
          "internalType": "uint256",
          "name": "",
          "type": "uint256"
        },
        {
          "internalType": "uint256",
          "name": "",
          "type": "uint256"
        },
        {
          "internalType": "bytes",
          "name": "",
          "type": "bytes"
        }
      ],
      "name": "onERC1155Received",
      "outputs": [
        {
          "internalType": "bytes4",
          "name": "",
          "type": "bytes4"
        }
      ],
      "stateMutability": "nonpayable",
      "type": "function"
    },
    {
      "inputs": [],
      "name": "owner",
      "outputs": [
        {
          "internalType": "address",
          "name": "",
          "type": "address"
        }
      ],
      "stateMutability": "view",
      "type": "function"
    },
    {
      "inputs": [],
      "name": "renounceOwnership",
      "outputs": [],
      "stateMutability": "nonpayable",
      "type": "function"
    },
    {
      "inputs": [
        {
          "internalType": "bytes4",
          "name": "interfaceId",
          "type": "bytes4"
        }
      ],
      "name": "supportsInterface",
      "outputs": [
        {
          "internalType": "bool",
          "name": "",
          "type": "bool"
        }
      ],
      "stateMutability": "view",
      "type": "function"
    },
    {
      "inputs": [
        {
          "internalType": "address",
          "name": "newOwner",
          "type": "address"
        }
      ],
      "name": "transferOwnership",
      "outputs": [],
      "stateMutability": "nonpayable",
      "type": "function"
    }
  ],
  "bytecode": "0x6080604052662386f26fc1000060035534801561001b57600080fd5b5061003861002d61003d60201b60201c565b61004560201b60201c565b610109565b600033905090565b60008060009054906101000a900473ffffffffffffffffffffffffffffffffffffffff169050816000806101000a81548173ffffffffffffffffffffffffffffffffffffffff021916908373ffffffffffffffffffffffffffffffffffffffff1602179055508173ffffffffffffffffffffffffffffffffffffffff168173ffffffffffffffffffffffffffffffffffffffff167f8be0079c531659141344cd1fd0a4f28419497f9722a3daafe3b4186f6b6457e060405160405180910390a35050565b610af0806101186000396000f3fe608060405234801561001057600080fd5b50600436106100625760003560e01c806301ffc9a714610067578063715018a6146100975780638da5cb5b146100a1578063bc197c81146100bf578063f23a6e61146100ef578063f2fde38b1461011f575b600080fd5b610081600480360381019061007c91906104bf565b61013b565b60405161008e9190610507565b60405180910390f35b61009f6101b5565b005b6100a96101c9565b6040516100b69190610563565b60405180910390f35b6100d960048036038101906100d491906107ee565b6101f2565b6040516100e691906108cc565b60405180910390f35b610109600480360381019061010491906108e7565b610207565b60405161011691906108cc565b60405180910390f35b6101396004803603810190610134919061097e565b61021c565b005b60007f4e2312e0000000000000000000000000000000000000000000000000000000007bffffffffffffffffffffffffffffffffffffffffffffffffffffffff1916827bffffffffffffffffffffffffffffffffffffffffffffffffffffffff191614806101ae57506101ad8261029f565b5b9050919050565b6101bd610309565b6101c76000610387565b565b60008060009054906101000a900473ffffffffffffffffffffffffffffffffffffffff16905090565b600063bc197c8160e01b905095945050505050565b600063f23a6e6160e01b905095945050505050565b610224610309565b600073ffffffffffffffffffffffffffffffffffffffff168173ffffffffffffffffffffffffffffffffffffffff1603610293576040517f08c379a000000000000000000000000000000000000000000000000000000000815260040161028a90610a2e565b60405180910390fd5b61029c81610387565b50565b60007f01ffc9a7000000000000000000000000000000000000000000000000000000007bffffffffffffffffffffffffffffffffffffffffffffffffffffffff1916827bffffffffffffffffffffffffffffffffffffffffffffffffffffffff1916149050919050565b61031161044b565b73ffffffffffffffffffffffffffffffffffffffff1661032f6101c9565b73ffffffffffffffffffffffffffffffffffffffff1614610385576040517f08c379a000000000000000000000000000000000000000000000000000000000815260040161037c90610a9a565b60405180910390fd5b565b60008060009054906101000a900473ffffffffffffffffffffffffffffffffffffffff169050816000806101000a81548173ffffffffffffffffffffffffffffffffffffffff021916908373ffffffffffffffffffffffffffffffffffffffff1602179055508173ffffffffffffffffffffffffffffffffffffffff168173ffffffffffffffffffffffffffffffffffffffff167f8be0079c531659141344cd1fd0a4f28419497f9722a3daafe3b4186f6b6457e060405160405180910390a35050565b600033905090565b6000604051905090565b600080fd5b600080fd5b60007fffffffff0000000000000000000000000000000000000000000000000000000082169050919050565b61049c81610467565b81146104a757600080fd5b50565b6000813590506104b981610493565b92915050565b6000602082840312156104d5576104d461045d565b5b60006104e3848285016104aa565b91505092915050565b60008115159050919050565b610501816104ec565b82525050565b600060208201905061051c60008301846104f8565b92915050565b600073ffffffffffffffffffffffffffffffffffffffff82169050919050565b600061054d82610522565b9050919050565b61055d81610542565b82525050565b60006020820190506105786000830184610554565b92915050565b61058781610542565b811461059257600080fd5b50565b6000813590506105a48161057e565b92915050565b600080fd5b6000601f19601f8301169050919050565b7f4e487b7100000000000000000000000000000000000000000000000000000000600052604160045260246000fd5b6105f8826105af565b810181811067ffffffffffffffff82111715610617576106166105c0565b5b80604052505050565b600061062a610453565b905061063682826105ef565b919050565b600067ffffffffffffffff821115610656576106556105c0565b5b602082029050602081019050919050565b600080fd5b6000819050919050565b61067f8161066c565b811461068a57600080fd5b50565b60008135905061069c81610676565b92915050565b60006106b56106b08461063b565b610620565b905080838252602082019050602084028301858111156106d8576106d7610667565b5b835b8181101561070157806106ed888261068d565b8452602084019350506020810190506106da565b5050509392505050565b600082601f8301126107205761071f6105aa565b5b81356107308482602086016106a2565b91505092915050565b600080fd5b600067ffffffffffffffff821115610759576107586105c0565b5b610762826105af565b9050602081019050919050565b82818337600083830152505050565b600061079161078c8461073e565b610620565b9050828152602081018484840111156107ad576107ac610739565b5b6107b884828561076f565b509392505050565b600082601f8301126107d5576107d46105aa565b5b81356107e584826020860161077e565b91505092915050565b600080600080600060a0868803121561080a5761080961045d565b5b600061081888828901610595565b955050602061082988828901610595565b945050604086013567ffffffffffffffff81111561084a57610849610462565b5b6108568882890161070b565b935050606086013567ffffffffffffffff81111561087757610876610462565b5b6108838882890161070b565b925050608086013567ffffffffffffffff8111156108a4576108a3610462565b5b6108b0888289016107c0565b9150509295509295909350565b6108c681610467565b82525050565b60006020820190506108e160008301846108bd565b92915050565b600080600080600060a086880312156109035761090261045d565b5b600061091188828901610595565b955050602061092288828901610595565b94505060406109338882890161068d565b93505060606109448882890161068d565b925050608086013567ffffffffffffffff81111561096557610964610462565b5b610971888289016107c0565b9150509295509295909350565b6000602082840312156109945761099361045d565b5b60006109a284828501610595565b91505092915050565b600082825260208201905092915050565b7f4f776e61626c653a206e6577206f776e657220697320746865207a65726f206160008201527f6464726573730000000000000000000000000000000000000000000000000000602082015250565b6000610a186026836109ab565b9150610a23826109bc565b604082019050919050565b60006020820190508181036000830152610a4781610a0b565b9050919050565b7f4f776e61626c653a2063616c6c6572206973206e6f7420746865206f776e6572600082015250565b6000610a846020836109ab565b9150610a8f82610a4e565b602082019050919050565b60006020820190508181036000830152610ab381610a77565b905091905056fea2646970667358221220bf061b9a4d5e57a8044095b936b402396ad7e5805b7d91055fcc4b240530ad7a64736f6c63430008120033",
  "immutableReferences": {},
  "source": "// SPDX-License-Identifier: MIT\r\npragma solidity ^0.8.18;\r\n\r\nimport \"../../node_modules/@openzeppelin/contracts/token/ERC1155/IERC1155.sol\";\r\nimport \"../../node_modules/@openzeppelin/contracts/utils/Counters.sol\";\r\nimport \"../../node_modules/@openzeppelin/contracts/access/Ownable.sol\";\r\nimport \"../../node_modules/@openzeppelin/contracts/token/ERC1155/utils/ERC1155Holder.sol\";\r\n\r\ncontract AuctionHouse is Ownable, ERC1155Holder {\r\n    using Counters for Counters.Counter;\r\n    //_itemIds variable has the most recent minted tokenId\r\n    Counters.Counter private _itemIds;\r\n    //Keeps track of the number of items sold on the marketplace\r\n    Counters.Counter private _itemsSold;\r\n    // //owner is the contract address that created the smart contract\r\n    // address payable owner;\r\n    //The fee charged by the marketplace to be allowed to list an NFT\r\n    uint256 listPrice = 0.01 ether;\r\n\r\n    //The structure to store info about a listed token\r\n    struct ListedItem {\r\n        uint256 itemId;\r\n        address payable owner;\r\n        address payable seller;\r\n        uint256 price;\r\n        uint256 deadline;\r\n        bool currentlyListed;\r\n    }\r\n\r\n    //the event emitted when a token is successfully listed\r\n    // event ItemListedSuccess (\r\n    //     uint256 indexed tokenId,\r\n    //     address owner,\r\n    //     address seller,\r\n    //     uint256 price,\r\n    //     bool currentlyListed\r\n    // );\r\n\r\n    //This mapping maps tokenId to token info and is helpful when retrieving details about a tokenId\r\n    mapping(uint256 => ListedItem) private idToListedItem;\r\n\r\n    // function updateListPrice(uint256 _listPrice) public payable {\r\n    //     require(owner == msg.sender, \"Only owner can update listing price\");\r\n    //     listPrice = _listPrice;\r\n    // }\r\n\r\n    // function getListPrice() public view returns (uint256) {\r\n    //     return listPrice;\r\n    // }\r\n\r\n    // function getLatestIdToListedItem()\r\n    //     public\r\n    //     view\r\n    //     returns (ListedItem memory)\r\n    // {\r\n    //     uint256 currentItemId = _itemIds.current();\r\n    //     return idToListedItem[currentItemId];\r\n    // }\r\n\r\n    // function getListedItemForId(\r\n    //     uint256 tokenId\r\n    // ) public view returns (ListedItem memory) {\r\n    //     return idToListedItem[tokenId];\r\n    // }\r\n\r\n    // function getCurrentItem() public view returns (uint256) {\r\n    //     return _itemIds.current();\r\n    // }\r\n\r\n    function listItem(\r\n        address nftContract,\r\n        uint256 itemId,\r\n        uint256 price,\r\n        uint256 deadline\r\n    ) private {\r\n        //Make sure the sender sent enough ETH to pay for listing\r\n        // require(msg.value == listPrice, \"Hopefully sending the correct price\");\r\n        // //Just sanity check\r\n        // require(price > 0, \"Make sure the price isn't negative\");\r\n        // require(\r\n        //     _deadline > 3600,\r\n        //     \"The deadline needs to be greater than 1 hour\"\r\n        // );\r\n\r\n        //Update the mapping of tokenId's to Item details, useful for retrieval functions\r\n        idToListedItem[itemId] = ListedItem(\r\n            itemId,\r\n            payable(address(this)),\r\n            payable(msg.sender),\r\n            price,\r\n            deadline,\r\n            true\r\n        );\r\n\r\n        // IERC1155(nftContract).safeTransferFrom(\r\n        //     msg.sender,\r\n        //     _receiver,\r\n        //     _itemId,\r\n        //     _amountOfItem,\r\n        //     \"0x0\"\r\n        // );\r\n\r\n        IERC1155(nftContract).safeTransferFrom(\r\n            msg.sender,\r\n            address(this),\r\n            itemId,\r\n            1,\r\n            \"0x0\"\r\n        );\r\n        // _marketOwner.transfer(LISTING_FEE);\r\n        // _nftCount.increment();\r\n\r\n        //Emit the event for successful transfer. The frontend parses this message and updates the end user\r\n        // emit ItemListedSuccess(\r\n        //     tokenId,\r\n        //     address(this),\r\n        //     msg.sender,\r\n        //     price,\r\n        //     true\r\n        // );\r\n    }\r\n\r\n    //This will return all the NFTs currently listed to be sold on the marketplace\r\n    // function getAllNFTs() public view returns (ListedItem[] memory) {\r\n    //     uint nftCount = _itemIds.current();\r\n    //     ListedItem[] memory tokens = new ListedItem[](nftCount);\r\n    //     uint currentIndex = 0;\r\n\r\n    //     //at the moment currentlyListed is true for all, if it becomes false in the future we will\r\n    //     //filter out currentlyListed == false over here\r\n    //     for (uint i = 0; i < nftCount; i++) {\r\n    //         uint currentId = i + 1;\r\n    //         ListedItem storage currentItem = idToListedItem[currentId];\r\n    //         tokens[currentIndex] = currentItem;\r\n    //         currentIndex += 1;\r\n    //     }\r\n    //     //the array 'tokens' has the list of all NFTs in the marketplace\r\n    //     return tokens;\r\n    // }\r\n\r\n    // //Returns all the NFTs that the current user is owner or seller in\r\n    // function getMyNFTs() public view returns (ListedItem[] memory) {\r\n    //     uint totalItemCount = _itemIds.current();\r\n    //     uint itemCount = 0;\r\n    //     uint currentIndex = 0;\r\n\r\n    //     //Important to get a count of all the NFTs that belong to the user before we can make an array for them\r\n    //     for (uint i = 0; i < totalItemCount; i++) {\r\n    //         if (\r\n    //             idToListedItem[i + 1].owner == msg.sender ||\r\n    //             idToListedItem[i + 1].seller == msg.sender\r\n    //         ) {\r\n    //             itemCount += 1;\r\n    //         }\r\n    //     }\r\n\r\n    //     //Once you have the count of relevant NFTs, create an array then store all the NFTs in it\r\n    //     ListedItem[] memory items = new ListedItem[](itemCount);\r\n    //     for (uint i = 0; i < totalItemCount; i++) {\r\n    //         if (\r\n    //             idToListedItem[i + 1].owner == msg.sender ||\r\n    //             idToListedItem[i + 1].seller == msg.sender\r\n    //         ) {\r\n    //             uint currentId = i + 1;\r\n    //             ListedItem storage currentItem = idToListedItem[currentId];\r\n    //             items[currentIndex] = currentItem;\r\n    //             currentIndex += 1;\r\n    //         }\r\n    //     }\r\n    //     return items;\r\n    // }\r\n\r\n    // function executeSale(uint256 tokenId) public payable {\r\n    //     uint price = idToListedItem[tokenId].price;\r\n    //     address seller = idToListedItem[tokenId].seller;\r\n    //     require(\r\n    //         msg.value == price,\r\n    //         \"Please submit the asking price in order to complete the purchase\"\r\n    //     );\r\n\r\n    //     //update the details of the token\r\n    //     idToListedItem[tokenId].currentlyListed = true;\r\n    //     idToListedItem[tokenId].seller = payable(msg.sender);\r\n    //     _itemsSold.increment();\r\n\r\n    //     //Actually transfer the token to the new owner\r\n    //     _transfer(address(this), msg.sender, tokenId);\r\n    //     //approve the marketplace to sell NFTs on your behalf\r\n    //     approve(address(this), tokenId);\r\n\r\n    //     //Transfer the listing fee to the marketplace creator\r\n    //     payable(owner).transfer(listPrice);\r\n    //     //Transfer the proceeds from the sale to the seller of the NFT\r\n    //     payable(seller).transfer(msg.value);\r\n    // }\r\n}\r\n",
  "sourcePath": "C:\\Users\\Alex\\Documents\\Travail\\Alyra\\NG-project\\contracts\\Auction-House\\AuctionHouse.sol",
  "compiler": {
    "name": "solc",
    "version": "0.8.18+commit.87f61d96.Emscripten.clang"
  },
  "schemaVersion": "3.4.7",
  "updatedAt": "2023-03-31T08:51:22.581Z",
  "devdoc": {
    "kind": "dev",
    "methods": {
      "owner()": {
        "details": "Returns the address of the current owner."
      },
      "renounceOwnership()": {
        "details": "Leaves the contract without owner. It will not be possible to call `onlyOwner` functions anymore. Can only be called by the current owner. NOTE: Renouncing ownership will leave the contract without an owner, thereby removing any functionality that is only available to the owner."
      },
      "supportsInterface(bytes4)": {
        "details": "See {IERC165-supportsInterface}."
      },
      "transferOwnership(address)": {
        "details": "Transfers ownership of the contract to a new account (`newOwner`). Can only be called by the current owner."
      }
    },
    "version": 1
  },
  "userdoc": {
    "kind": "user",
    "methods": {},
    "version": 1
  }
}