{
  "contractName": "ForgeFactory",
  "abi": [
    {
      "anonymous": false,
      "inputs": [
        {
          "indexed": true,
          "internalType": "address",
          "name": "previousOwner",
          "type": "address"
        },
        {
          "indexed": true,
          "internalType": "address",
          "name": "newOwner",
          "type": "address"
        }
      ],
      "name": "OwnershipTransferred",
      "type": "event"
    },
    {
      "inputs": [],
      "name": "owner",
      "outputs": [
        {
          "internalType": "address",
          "name": "",
          "type": "address"
        }
      ],
      "stateMutability": "view",
      "type": "function"
    },
    {
      "inputs": [],
      "name": "renounceOwnership",
      "outputs": [],
      "stateMutability": "nonpayable",
      "type": "function"
    },
    {
      "inputs": [
        {
          "internalType": "address",
          "name": "newOwner",
          "type": "address"
        }
      ],
      "name": "transferOwnership",
      "outputs": [],
      "stateMutability": "nonpayable",
      "type": "function"
    },
    {
      "inputs": [
        {
          "internalType": "string",
          "name": "collectionName",
          "type": "string"
        }
      ],
      "name": "forgeCollection",
      "outputs": [
        {
          "internalType": "address",
          "name": "collectionAddress",
          "type": "address"
        }
      ],
      "stateMutability": "nonpayable",
      "type": "function"
    }
  ],
  "bytecode": "0x608060405234801561001057600080fd5b5061002d61002261003260201b60201c565b61003a60201b60201c565b6100fe565b600033905090565b60008060009054906101000a900473ffffffffffffffffffffffffffffffffffffffff169050816000806101000a81548173ffffffffffffffffffffffffffffffffffffffff021916908373ffffffffffffffffffffffffffffffffffffffff1602179055508173ffffffffffffffffffffffffffffffffffffffff168173ffffffffffffffffffffffffffffffffffffffff167f8be0079c531659141344cd1fd0a4f28419497f9722a3daafe3b4186f6b6457e060405160405180910390a35050565b6141ca8061010d6000396000f3fe60806040523480156200001157600080fd5b5060043610620000525760003560e01c8063715018a614620000575780637f51b2dc14620000635780638da5cb5b1462000099578063f2fde38b14620000bb575b600080fd5b62000061620000db565b005b6200008160048036038101906200007b9190620004f2565b620000f3565b60405162000090919062000588565b60405180910390f35b620000a36200016a565b604051620000b2919062000588565b60405180910390f35b620000d96004803603810190620000d39190620005d6565b62000193565b005b620000e56200021d565b620000f16000620002a2565b565b6000806040518060200162000108906200036e565b6020820181038252601f19601f82011660405250905060008360405160200162000133919062000681565b604051602081830303815290604052805190602001209050808251602084016000f59250823b6200016357600080fd5b5050919050565b60008060009054906101000a900473ffffffffffffffffffffffffffffffffffffffff16905090565b6200019d6200021d565b600073ffffffffffffffffffffffffffffffffffffffff168173ffffffffffffffffffffffffffffffffffffffff16036200020f576040517f08c379a0000000000000000000000000000000000000000000000000000000008152600401620002069062000721565b60405180910390fd5b6200021a81620002a2565b50565b6200022762000366565b73ffffffffffffffffffffffffffffffffffffffff16620002476200016a565b73ffffffffffffffffffffffffffffffffffffffff1614620002a0576040517f08c379a0000000000000000000000000000000000000000000000000000000008152600401620002979062000793565b60405180910390fd5b565b60008060009054906101000a900473ffffffffffffffffffffffffffffffffffffffff169050816000806101000a81548173ffffffffffffffffffffffffffffffffffffffff021916908373ffffffffffffffffffffffffffffffffffffffff1602179055508173ffffffffffffffffffffffffffffffffffffffff168173ffffffffffffffffffffffffffffffffffffffff167f8be0079c531659141344cd1fd0a4f28419497f9722a3daafe3b4186f6b6457e060405160405180910390a35050565b600033905090565b6139df80620007b683390190565b6000604051905090565b600080fd5b600080fd5b600080fd5b600080fd5b6000601f19601f8301169050919050565b7f4e487b7100000000000000000000000000000000000000000000000000000000600052604160045260246000fd5b620003e5826200039a565b810181811067ffffffffffffffff82111715620004075762000406620003ab565b5b80604052505050565b60006200041c6200037c565b90506200042a8282620003da565b919050565b600067ffffffffffffffff8211156200044d576200044c620003ab565b5b62000458826200039a565b9050602081019050919050565b82818337600083830152505050565b60006200048b62000485846200042f565b62000410565b905082815260208101848484011115620004aa57620004a962000395565b5b620004b784828562000465565b509392505050565b600082601f830112620004d757620004d662000390565b5b8135620004e984826020860162000474565b91505092915050565b6000602082840312156200050b576200050a62000386565b5b600082013567ffffffffffffffff8111156200052c576200052b6200038b565b5b6200053a84828501620004bf565b91505092915050565b600073ffffffffffffffffffffffffffffffffffffffff82169050919050565b6000620005708262000543565b9050919050565b620005828162000563565b82525050565b60006020820190506200059f600083018462000577565b92915050565b620005b08162000563565b8114620005bc57600080fd5b50565b600081359050620005d081620005a5565b92915050565b600060208284031215620005ef57620005ee62000386565b5b6000620005ff84828501620005bf565b91505092915050565b600081519050919050565b600081905092915050565b60005b838110156200063e57808201518184015260208101905062000621565b60008484015250505050565b6000620006578262000608565b62000663818562000613565b9350620006758185602086016200061e565b80840191505092915050565b60006200068f82846200064a565b915081905092915050565b600082825260208201905092915050565b7f4f776e61626c653a206e6577206f776e657220697320746865207a65726f206160008201527f6464726573730000000000000000000000000000000000000000000000000000602082015250565b6000620007096026836200069a565b91506200071682620006ab565b604082019050919050565b600060208201905081810360008301526200073c81620006fa565b9050919050565b7f4f776e61626c653a2063616c6c6572206973206e6f7420746865206f776e6572600082015250565b60006200077b6020836200069a565b9150620007888262000743565b602082019050919050565b60006020820190508181036000830152620007ae816200076c565b905091905056fe60806040523480156200001157600080fd5b506040518060800160405280605a815260200162003985605a91396200003d816200007460201b60201c565b506200005e620000526200008960201b60201c565b6200009160201b60201c565b6200006e6200015760201b60201c565b620010ce565b80600290816200008591906200097c565b5050565b600033905090565b6000600360009054906101000a900473ffffffffffffffffffffffffffffffffffffffff16905081600360006101000a81548173ffffffffffffffffffffffffffffffffffffffff021916908373ffffffffffffffffffffffffffffffffffffffff1602179055508173ffffffffffffffffffffffffffffffffffffffff168173ffffffffffffffffffffffffffffffffffffffff167f8be0079c531659141344cd1fd0a4f28419497f9722a3daafe3b4186f6b6457e060405160405180910390a35050565b62000167620001b360201b60201c565b6200018c33600a6064604051806020016040528060008152506200024460201b60201c565b620001b13360146005604051806020016040528060008152506200024460201b60201c565b565b620001c36200008960201b60201c565b73ffffffffffffffffffffffffffffffffffffffff16620001e96200042b60201b60201c565b73ffffffffffffffffffffffffffffffffffffffff161462000242576040517f08c379a0000000000000000000000000000000000000000000000000000000008152600401620002399062000ac4565b60405180910390fd5b565b600073ffffffffffffffffffffffffffffffffffffffff168473ffffffffffffffffffffffffffffffffffffffff1603620002b6576040517f08c379a0000000000000000000000000000000000000000000000000000000008152600401620002ad9062000b5c565b60405180910390fd5b6000620002c86200008960201b60201c565b90506000620002dd856200045560201b60201c565b90506000620002f2856200045560201b60201c565b90506200030b83600089858589620004d660201b60201c565b8460008088815260200190815260200160002060008973ffffffffffffffffffffffffffffffffffffffff1673ffffffffffffffffffffffffffffffffffffffff16815260200190815260200160002060008282546200036c919062000bad565b925050819055508673ffffffffffffffffffffffffffffffffffffffff16600073ffffffffffffffffffffffffffffffffffffffff168473ffffffffffffffffffffffffffffffffffffffff167fc3d58168c5ae7397731d063d5bbf3d657854427343f4c083240f7aacaa2d0f628989604051620003ec92919062000bf9565b60405180910390a46200040b83600089858589620004de60201b60201c565b6200042283600089898989620004e660201b60201c565b50505050505050565b6000600360009054906101000a900473ffffffffffffffffffffffffffffffffffffffff16905090565b60606000600167ffffffffffffffff8111156200047757620004766200070d565b5b604051908082528060200260200182016040528015620004a65781602001602082028036833780820191505090505b5090508281600081518110620004c157620004c062000c26565b5b60200260200101818152505080915050919050565b505050505050565b505050505050565b620005128473ffffffffffffffffffffffffffffffffffffffff16620006df60201b620008391760201c565b15620006d7578373ffffffffffffffffffffffffffffffffffffffff1663f23a6e6187878686866040518663ffffffff1660e01b81526004016200055b95949392919062000d34565b6020604051808303816000875af19250505080156200059a57506040513d601f19601f8201168201806040525081019062000597919062000e04565b60015b6200064b57620005a962000e43565b806308c379a0036200060c5750620005c062000e9e565b80620005cd57506200060e565b806040517f08c379a000000000000000000000000000000000000000000000000000000000815260040162000603919062000f7a565b60405180910390fd5b505b6040517f08c379a0000000000000000000000000000000000000000000000000000000008152600401620006429062001014565b60405180910390fd5b63f23a6e6160e01b7bffffffffffffffffffffffffffffffffffffffffffffffffffffffff1916817bffffffffffffffffffffffffffffffffffffffffffffffffffffffff191614620006d5576040517f08c379a0000000000000000000000000000000000000000000000000000000008152600401620006cc90620010ac565b60405180910390fd5b505b505050505050565b6000808273ffffffffffffffffffffffffffffffffffffffff163b119050919050565b600081519050919050565b7f4e487b7100000000000000000000000000000000000000000000000000000000600052604160045260246000fd5b7f4e487b7100000000000000000000000000000000000000000000000000000000600052602260045260246000fd5b600060028204905060018216806200078457607f821691505b6020821081036200079a57620007996200073c565b5b50919050565b60008190508160005260206000209050919050565b60006020601f8301049050919050565b600082821b905092915050565b600060088302620008047fffffffffffffffffffffffffffffffffffffffffffffffffffffffffffffffff82620007c5565b620008108683620007c5565b95508019841693508086168417925050509392505050565b6000819050919050565b6000819050919050565b60006200085d62000857620008518462000828565b62000832565b62000828565b9050919050565b6000819050919050565b62000879836200083c565b62000891620008888262000864565b848454620007d2565b825550505050565b600090565b620008a862000899565b620008b58184846200086e565b505050565b5b81811015620008dd57620008d16000826200089e565b600181019050620008bb565b5050565b601f8211156200092c57620008f681620007a0565b6200090184620007b5565b8101602085101562000911578190505b620009296200092085620007b5565b830182620008ba565b50505b505050565b600082821c905092915050565b6000620009516000198460080262000931565b1980831691505092915050565b60006200096c83836200093e565b9150826002028217905092915050565b620009878262000702565b67ffffffffffffffff811115620009a357620009a26200070d565b5b620009af82546200076b565b620009bc828285620008e1565b600060209050601f831160018114620009f45760008415620009df578287015190505b620009eb85826200095e565b86555062000a5b565b601f19841662000a0486620007a0565b60005b8281101562000a2e5784890151825560018201915060208501945060208101905062000a07565b8683101562000a4e578489015162000a4a601f8916826200093e565b8355505b6001600288020188555050505b505050505050565b600082825260208201905092915050565b7f4f776e61626c653a2063616c6c6572206973206e6f7420746865206f776e6572600082015250565b600062000aac60208362000a63565b915062000ab98262000a74565b602082019050919050565b6000602082019050818103600083015262000adf8162000a9d565b9050919050565b7f455243313135353a206d696e7420746f20746865207a65726f2061646472657360008201527f7300000000000000000000000000000000000000000000000000000000000000602082015250565b600062000b4460218362000a63565b915062000b518262000ae6565b604082019050919050565b6000602082019050818103600083015262000b778162000b35565b9050919050565b7f4e487b7100000000000000000000000000000000000000000000000000000000600052601160045260246000fd5b600062000bba8262000828565b915062000bc78362000828565b925082820190508082111562000be25762000be162000b7e565b5b92915050565b62000bf38162000828565b82525050565b600060408201905062000c10600083018562000be8565b62000c1f602083018462000be8565b9392505050565b7f4e487b7100000000000000000000000000000000000000000000000000000000600052603260045260246000fd5b600073ffffffffffffffffffffffffffffffffffffffff82169050919050565b600062000c828262000c55565b9050919050565b62000c948162000c75565b82525050565b600081519050919050565b600082825260208201905092915050565b60005b8381101562000cd657808201518184015260208101905062000cb9565b60008484015250505050565b6000601f19601f8301169050919050565b600062000d008262000c9a565b62000d0c818562000ca5565b935062000d1e81856020860162000cb6565b62000d298162000ce2565b840191505092915050565b600060a08201905062000d4b600083018862000c89565b62000d5a602083018762000c89565b62000d69604083018662000be8565b62000d78606083018562000be8565b818103608083015262000d8c818462000cf3565b90509695505050505050565b6000604051905090565b600080fd5b60007fffffffff0000000000000000000000000000000000000000000000000000000082169050919050565b62000dde8162000da7565b811462000dea57600080fd5b50565b60008151905062000dfe8162000dd3565b92915050565b60006020828403121562000e1d5762000e1c62000da2565b5b600062000e2d8482850162000ded565b91505092915050565b60008160e01c9050919050565b600060033d111562000e655760046000803e62000e6260005162000e36565b90505b90565b62000e738262000ce2565b810181811067ffffffffffffffff8211171562000e955762000e946200070d565b5b80604052505050565b600060443d1062000f365762000eb362000d98565b60043d036004823e80513d602482011167ffffffffffffffff8211171562000edd57505062000f36565b808201805167ffffffffffffffff81111562000efd575050505062000f36565b80602083010160043d03850181111562000f1c57505050505062000f36565b62000f2d8260200185018662000e68565b82955050505050505b90565b600062000f468262000702565b62000f52818562000a63565b935062000f6481856020860162000cb6565b62000f6f8162000ce2565b840191505092915050565b6000602082019050818103600083015262000f96818462000f39565b905092915050565b7f455243313135353a207472616e7366657220746f206e6f6e2d4552433131353560008201527f526563656976657220696d706c656d656e746572000000000000000000000000602082015250565b600062000ffc60348362000a63565b9150620010098262000f9e565b604082019050919050565b600060208201905081810360008301526200102f8162000fed565b9050919050565b7f455243313135353a204552433131353552656365697665722072656a6563746560008201527f6420746f6b656e73000000000000000000000000000000000000000000000000602082015250565b60006200109460288362000a63565b9150620010a18262001036565b604082019050919050565b60006020820190508181036000830152620010c78162001085565b9050919050565b6128a780620010de6000396000f3fe608060405234801561001057600080fd5b50600436106100a85760003560e01c8063715018a611610071578063715018a6146101895780638da5cb5b14610193578063a22cb465146101b1578063e985e9c5146101cd578063f242432a146101fd578063f2fde38b14610219576100a8565b8062fdd58e146100ad57806301ffc9a7146100dd5780630e89341c1461010d5780632eb2c2d61461013d5780634e1273f414610159575b600080fd5b6100c760048036038101906100c2919061161a565b610235565b6040516100d49190611669565b60405180910390f35b6100f760048036038101906100f291906116dc565b6102fd565b6040516101049190611724565b60405180910390f35b6101276004803603810190610122919061173f565b6103df565b60405161013491906117fc565b60405180910390f35b61015760048036038101906101529190611a1b565b610473565b005b610173600480360381019061016e9190611bad565b610514565b6040516101809190611ce3565b60405180910390f35b61019161062d565b005b61019b610641565b6040516101a89190611d14565b60405180910390f35b6101cb60048036038101906101c69190611d5b565b61066b565b005b6101e760048036038101906101e29190611d9b565b610681565b6040516101f49190611724565b60405180910390f35b61021760048036038101906102129190611ddb565b610715565b005b610233600480360381019061022e9190611e72565b6107b6565b005b60008073ffffffffffffffffffffffffffffffffffffffff168373ffffffffffffffffffffffffffffffffffffffff16036102a5576040517f08c379a000000000000000000000000000000000000000000000000000000000815260040161029c90611f11565b60405180910390fd5b60008083815260200190815260200160002060008473ffffffffffffffffffffffffffffffffffffffff1673ffffffffffffffffffffffffffffffffffffffff16815260200190815260200160002054905092915050565b60007fd9b67a26000000000000000000000000000000000000000000000000000000007bffffffffffffffffffffffffffffffffffffffffffffffffffffffff1916827bffffffffffffffffffffffffffffffffffffffffffffffffffffffff191614806103c857507f0e89341c000000000000000000000000000000000000000000000000000000007bffffffffffffffffffffffffffffffffffffffffffffffffffffffff1916827bffffffffffffffffffffffffffffffffffffffffffffffffffffffff1916145b806103d857506103d78261085c565b5b9050919050565b6060600280546103ee90611f60565b80601f016020809104026020016040519081016040528092919081815260200182805461041a90611f60565b80156104675780601f1061043c57610100808354040283529160200191610467565b820191906000526020600020905b81548152906001019060200180831161044a57829003601f168201915b50505050509050919050565b61047b6108c6565b73ffffffffffffffffffffffffffffffffffffffff168573ffffffffffffffffffffffffffffffffffffffff1614806104c157506104c0856104bb6108c6565b610681565b5b610500576040517f08c379a00000000000000000000000000000000000000000000000000000000081526004016104f790612003565b60405180910390fd5b61050d85858585856108ce565b5050505050565b6060815183511461055a576040517f08c379a000000000000000000000000000000000000000000000000000000000815260040161055190612095565b60405180910390fd5b6000835167ffffffffffffffff81111561057757610576611823565b5b6040519080825280602002602001820160405280156105a55781602001602082028036833780820191505090505b50905060005b8451811015610622576105f28582815181106105ca576105c96120b5565b5b60200260200101518583815181106105e5576105e46120b5565b5b6020026020010151610235565b828281518110610605576106046120b5565b5b6020026020010181815250508061061b90612113565b90506105ab565b508091505092915050565b610635610bef565b61063f6000610c6d565b565b6000600360009054906101000a900473ffffffffffffffffffffffffffffffffffffffff16905090565b61067d6106766108c6565b8383610d33565b5050565b6000600160008473ffffffffffffffffffffffffffffffffffffffff1673ffffffffffffffffffffffffffffffffffffffff16815260200190815260200160002060008373ffffffffffffffffffffffffffffffffffffffff1673ffffffffffffffffffffffffffffffffffffffff16815260200190815260200160002060009054906101000a900460ff16905092915050565b61071d6108c6565b73ffffffffffffffffffffffffffffffffffffffff168573ffffffffffffffffffffffffffffffffffffffff16148061076357506107628561075d6108c6565b610681565b5b6107a2576040517f08c379a000000000000000000000000000000000000000000000000000000000815260040161079990612003565b60405180910390fd5b6107af8585858585610e9f565b5050505050565b6107be610bef565b600073ffffffffffffffffffffffffffffffffffffffff168173ffffffffffffffffffffffffffffffffffffffff160361082d576040517f08c379a0000000000000000000000000000000000000000000000000000000008152600401610824906121cd565b60405180910390fd5b61083681610c6d565b50565b6000808273ffffffffffffffffffffffffffffffffffffffff163b119050919050565b60007f01ffc9a7000000000000000000000000000000000000000000000000000000007bffffffffffffffffffffffffffffffffffffffffffffffffffffffff1916827bffffffffffffffffffffffffffffffffffffffffffffffffffffffff1916149050919050565b600033905090565b8151835114610912576040517f08c379a00000000000000000000000000000000000000000000000000000000081526004016109099061225f565b60405180910390fd5b600073ffffffffffffffffffffffffffffffffffffffff168473ffffffffffffffffffffffffffffffffffffffff1603610981576040517f08c379a0000000000000000000000000000000000000000000000000000000008152600401610978906122f1565b60405180910390fd5b600061098b6108c6565b905061099b81878787878761113a565b60005b8451811015610b4c5760008582815181106109bc576109bb6120b5565b5b6020026020010151905060008583815181106109db576109da6120b5565b5b60200260200101519050600080600084815260200190815260200160002060008b73ffffffffffffffffffffffffffffffffffffffff1673ffffffffffffffffffffffffffffffffffffffff16815260200190815260200160002054905081811015610a7c576040517f08c379a0000000000000000000000000000000000000000000000000000000008152600401610a7390612383565b60405180910390fd5b81810360008085815260200190815260200160002060008c73ffffffffffffffffffffffffffffffffffffffff1673ffffffffffffffffffffffffffffffffffffffff168152602001908152602001600020819055508160008085815260200190815260200160002060008b73ffffffffffffffffffffffffffffffffffffffff1673ffffffffffffffffffffffffffffffffffffffff1681526020019081526020016000206000828254610b3191906123a3565b9250508190555050505080610b4590612113565b905061099e565b508473ffffffffffffffffffffffffffffffffffffffff168673ffffffffffffffffffffffffffffffffffffffff168273ffffffffffffffffffffffffffffffffffffffff167f4a39dc06d4c0dbc64b70af90fd698a233a518aa5d07e595d983b8c0526c8f7fb8787604051610bc39291906123d7565b60405180910390a4610bd9818787878787611142565b610be781878787878761114a565b505050505050565b610bf76108c6565b73ffffffffffffffffffffffffffffffffffffffff16610c15610641565b73ffffffffffffffffffffffffffffffffffffffff1614610c6b576040517f08c379a0000000000000000000000000000000000000000000000000000000008152600401610c629061245a565b60405180910390fd5b565b6000600360009054906101000a900473ffffffffffffffffffffffffffffffffffffffff16905081600360006101000a81548173ffffffffffffffffffffffffffffffffffffffff021916908373ffffffffffffffffffffffffffffffffffffffff1602179055508173ffffffffffffffffffffffffffffffffffffffff168173ffffffffffffffffffffffffffffffffffffffff167f8be0079c531659141344cd1fd0a4f28419497f9722a3daafe3b4186f6b6457e060405160405180910390a35050565b8173ffffffffffffffffffffffffffffffffffffffff168373ffffffffffffffffffffffffffffffffffffffff1603610da1576040517f08c379a0000000000000000000000000000000000000000000000000000000008152600401610d98906124ec565b60405180910390fd5b80600160008573ffffffffffffffffffffffffffffffffffffffff1673ffffffffffffffffffffffffffffffffffffffff16815260200190815260200160002060008473ffffffffffffffffffffffffffffffffffffffff1673ffffffffffffffffffffffffffffffffffffffff16815260200190815260200160002060006101000a81548160ff0219169083151502179055508173ffffffffffffffffffffffffffffffffffffffff168373ffffffffffffffffffffffffffffffffffffffff167f17307eab39ab6107e8899845ad3d59bd9653f200f220920489ca2b5937696c3183604051610e929190611724565b60405180910390a3505050565b600073ffffffffffffffffffffffffffffffffffffffff168473ffffffffffffffffffffffffffffffffffffffff1603610f0e576040517f08c379a0000000000000000000000000000000000000000000000000000000008152600401610f05906122f1565b60405180910390fd5b6000610f186108c6565b90506000610f2585611321565b90506000610f3285611321565b9050610f4283898985858961113a565b600080600088815260200190815260200160002060008a73ffffffffffffffffffffffffffffffffffffffff1673ffffffffffffffffffffffffffffffffffffffff16815260200190815260200160002054905085811015610fd9576040517f08c379a0000000000000000000000000000000000000000000000000000000008152600401610fd090612383565b60405180910390fd5b85810360008089815260200190815260200160002060008b73ffffffffffffffffffffffffffffffffffffffff1673ffffffffffffffffffffffffffffffffffffffff168152602001908152602001600020819055508560008089815260200190815260200160002060008a73ffffffffffffffffffffffffffffffffffffffff1673ffffffffffffffffffffffffffffffffffffffff168152602001908152602001600020600082825461108e91906123a3565b925050819055508773ffffffffffffffffffffffffffffffffffffffff168973ffffffffffffffffffffffffffffffffffffffff168573ffffffffffffffffffffffffffffffffffffffff167fc3d58168c5ae7397731d063d5bbf3d657854427343f4c083240f7aacaa2d0f628a8a60405161110b92919061250c565b60405180910390a4611121848a8a86868a611142565b61112f848a8a8a8a8a61139b565b505050505050505050565b505050505050565b505050505050565b6111698473ffffffffffffffffffffffffffffffffffffffff16610839565b15611319578373ffffffffffffffffffffffffffffffffffffffff1663bc197c8187878686866040518663ffffffff1660e01b81526004016111af95949392919061258a565b6020604051808303816000875af19250505080156111eb57506040513d601f19601f820116820180604052508101906111e89190612607565b60015b611290576111f7612641565b806308c379a003611253575061120b612663565b806112165750611255565b806040517f08c379a000000000000000000000000000000000000000000000000000000000815260040161124a91906117fc565b60405180910390fd5b505b6040517f08c379a000000000000000000000000000000000000000000000000000000000815260040161128790612765565b60405180910390fd5b63bc197c8160e01b7bffffffffffffffffffffffffffffffffffffffffffffffffffffffff1916817bffffffffffffffffffffffffffffffffffffffffffffffffffffffff191614611317576040517f08c379a000000000000000000000000000000000000000000000000000000000815260040161130e906127f7565b60405180910390fd5b505b505050505050565b60606000600167ffffffffffffffff8111156113405761133f611823565b5b60405190808252806020026020018201604052801561136e5781602001602082028036833780820191505090505b5090508281600081518110611386576113856120b5565b5b60200260200101818152505080915050919050565b6113ba8473ffffffffffffffffffffffffffffffffffffffff16610839565b1561156a578373ffffffffffffffffffffffffffffffffffffffff1663f23a6e6187878686866040518663ffffffff1660e01b8152600401611400959493929190612817565b6020604051808303816000875af192505050801561143c57506040513d601f19601f820116820180604052508101906114399190612607565b60015b6114e157611448612641565b806308c379a0036114a4575061145c612663565b8061146757506114a6565b806040517f08c379a000000000000000000000000000000000000000000000000000000000815260040161149b91906117fc565b60405180910390fd5b505b6040517f08c379a00000000000000000000000000000000000000000000000000000000081526004016114d890612765565b60405180910390fd5b63f23a6e6160e01b7bffffffffffffffffffffffffffffffffffffffffffffffffffffffff1916817bffffffffffffffffffffffffffffffffffffffffffffffffffffffff191614611568576040517f08c379a000000000000000000000000000000000000000000000000000000000815260040161155f906127f7565b60405180910390fd5b505b505050505050565b6000604051905090565b600080fd5b600080fd5b600073ffffffffffffffffffffffffffffffffffffffff82169050919050565b60006115b182611586565b9050919050565b6115c1816115a6565b81146115cc57600080fd5b50565b6000813590506115de816115b8565b92915050565b6000819050919050565b6115f7816115e4565b811461160257600080fd5b50565b600081359050611614816115ee565b92915050565b600080604083850312156116315761163061157c565b5b600061163f858286016115cf565b925050602061165085828601611605565b9150509250929050565b611663816115e4565b82525050565b600060208201905061167e600083018461165a565b92915050565b60007fffffffff0000000000000000000000000000000000000000000000000000000082169050919050565b6116b981611684565b81146116c457600080fd5b50565b6000813590506116d6816116b0565b92915050565b6000602082840312156116f2576116f161157c565b5b6000611700848285016116c7565b91505092915050565b60008115159050919050565b61171e81611709565b82525050565b60006020820190506117396000830184611715565b92915050565b6000602082840312156117555761175461157c565b5b600061176384828501611605565b91505092915050565b600081519050919050565b600082825260208201905092915050565b60005b838110156117a657808201518184015260208101905061178b565b60008484015250505050565b6000601f19601f8301169050919050565b60006117ce8261176c565b6117d88185611777565b93506117e8818560208601611788565b6117f1816117b2565b840191505092915050565b6000602082019050818103600083015261181681846117c3565b905092915050565b600080fd5b7f4e487b7100000000000000000000000000000000000000000000000000000000600052604160045260246000fd5b61185b826117b2565b810181811067ffffffffffffffff8211171561187a57611879611823565b5b80604052505050565b600061188d611572565b90506118998282611852565b919050565b600067ffffffffffffffff8211156118b9576118b8611823565b5b602082029050602081019050919050565b600080fd5b60006118e26118dd8461189e565b611883565b90508083825260208201905060208402830185811115611905576119046118ca565b5b835b8181101561192e578061191a8882611605565b845260208401935050602081019050611907565b5050509392505050565b600082601f83011261194d5761194c61181e565b5b813561195d8482602086016118cf565b91505092915050565b600080fd5b600067ffffffffffffffff82111561198657611985611823565b5b61198f826117b2565b9050602081019050919050565b82818337600083830152505050565b60006119be6119b98461196b565b611883565b9050828152602081018484840111156119da576119d9611966565b5b6119e584828561199c565b509392505050565b600082601f830112611a0257611a0161181e565b5b8135611a128482602086016119ab565b91505092915050565b600080600080600060a08688031215611a3757611a3661157c565b5b6000611a45888289016115cf565b9550506020611a56888289016115cf565b945050604086013567ffffffffffffffff811115611a7757611a76611581565b5b611a8388828901611938565b935050606086013567ffffffffffffffff811115611aa457611aa3611581565b5b611ab088828901611938565b925050608086013567ffffffffffffffff811115611ad157611ad0611581565b5b611add888289016119ed565b9150509295509295909350565b600067ffffffffffffffff821115611b0557611b04611823565b5b602082029050602081019050919050565b6000611b29611b2484611aea565b611883565b90508083825260208201905060208402830185811115611b4c57611b4b6118ca565b5b835b81811015611b755780611b6188826115cf565b845260208401935050602081019050611b4e565b5050509392505050565b600082601f830112611b9457611b9361181e565b5b8135611ba4848260208601611b16565b91505092915050565b60008060408385031215611bc457611bc361157c565b5b600083013567ffffffffffffffff811115611be257611be1611581565b5b611bee85828601611b7f565b925050602083013567ffffffffffffffff811115611c0f57611c0e611581565b5b611c1b85828601611938565b9150509250929050565b600081519050919050565b600082825260208201905092915050565b6000819050602082019050919050565b611c5a816115e4565b82525050565b6000611c6c8383611c51565b60208301905092915050565b6000602082019050919050565b6000611c9082611c25565b611c9a8185611c30565b9350611ca583611c41565b8060005b83811015611cd6578151611cbd8882611c60565b9750611cc883611c78565b925050600181019050611ca9565b5085935050505092915050565b60006020820190508181036000830152611cfd8184611c85565b905092915050565b611d0e816115a6565b82525050565b6000602082019050611d296000830184611d05565b92915050565b611d3881611709565b8114611d4357600080fd5b50565b600081359050611d5581611d2f565b92915050565b60008060408385031215611d7257611d7161157c565b5b6000611d80858286016115cf565b9250506020611d9185828601611d46565b9150509250929050565b60008060408385031215611db257611db161157c565b5b6000611dc0858286016115cf565b9250506020611dd1858286016115cf565b9150509250929050565b600080600080600060a08688031215611df757611df661157c565b5b6000611e05888289016115cf565b9550506020611e16888289016115cf565b9450506040611e2788828901611605565b9350506060611e3888828901611605565b925050608086013567ffffffffffffffff811115611e5957611e58611581565b5b611e65888289016119ed565b9150509295509295909350565b600060208284031215611e8857611e8761157c565b5b6000611e96848285016115cf565b91505092915050565b7f455243313135353a2061646472657373207a65726f206973206e6f742061207660008201527f616c6964206f776e657200000000000000000000000000000000000000000000602082015250565b6000611efb602a83611777565b9150611f0682611e9f565b604082019050919050565b60006020820190508181036000830152611f2a81611eee565b9050919050565b7f4e487b7100000000000000000000000000000000000000000000000000000000600052602260045260246000fd5b60006002820490506001821680611f7857607f821691505b602082108103611f8b57611f8a611f31565b5b50919050565b7f455243313135353a2063616c6c6572206973206e6f7420746f6b656e206f776e60008201527f6572206f7220617070726f766564000000000000000000000000000000000000602082015250565b6000611fed602e83611777565b9150611ff882611f91565b604082019050919050565b6000602082019050818103600083015261201c81611fe0565b9050919050565b7f455243313135353a206163636f756e747320616e6420696473206c656e67746860008201527f206d69736d617463680000000000000000000000000000000000000000000000602082015250565b600061207f602983611777565b915061208a82612023565b604082019050919050565b600060208201905081810360008301526120ae81612072565b9050919050565b7f4e487b7100000000000000000000000000000000000000000000000000000000600052603260045260246000fd5b7f4e487b7100000000000000000000000000000000000000000000000000000000600052601160045260246000fd5b600061211e826115e4565b91507fffffffffffffffffffffffffffffffffffffffffffffffffffffffffffffffff82036121505761214f6120e4565b5b600182019050919050565b7f4f776e61626c653a206e6577206f776e657220697320746865207a65726f206160008201527f6464726573730000000000000000000000000000000000000000000000000000602082015250565b60006121b7602683611777565b91506121c28261215b565b604082019050919050565b600060208201905081810360008301526121e6816121aa565b9050919050565b7f455243313135353a2069647320616e6420616d6f756e7473206c656e6774682060008201527f6d69736d61746368000000000000000000000000000000000000000000000000602082015250565b6000612249602883611777565b9150612254826121ed565b604082019050919050565b600060208201905081810360008301526122788161223c565b9050919050565b7f455243313135353a207472616e7366657220746f20746865207a65726f20616460008201527f6472657373000000000000000000000000000000000000000000000000000000602082015250565b60006122db602583611777565b91506122e68261227f565b604082019050919050565b6000602082019050818103600083015261230a816122ce565b9050919050565b7f455243313135353a20696e73756666696369656e742062616c616e636520666f60008201527f72207472616e7366657200000000000000000000000000000000000000000000602082015250565b600061236d602a83611777565b915061237882612311565b604082019050919050565b6000602082019050818103600083015261239c81612360565b9050919050565b60006123ae826115e4565b91506123b9836115e4565b92508282019050808211156123d1576123d06120e4565b5b92915050565b600060408201905081810360008301526123f18185611c85565b905081810360208301526124058184611c85565b90509392505050565b7f4f776e61626c653a2063616c6c6572206973206e6f7420746865206f776e6572600082015250565b6000612444602083611777565b915061244f8261240e565b602082019050919050565b6000602082019050818103600083015261247381612437565b9050919050565b7f455243313135353a2073657474696e6720617070726f76616c2073746174757360008201527f20666f722073656c660000000000000000000000000000000000000000000000602082015250565b60006124d6602983611777565b91506124e18261247a565b604082019050919050565b60006020820190508181036000830152612505816124c9565b9050919050565b6000604082019050612521600083018561165a565b61252e602083018461165a565b9392505050565b600081519050919050565b600082825260208201905092915050565b600061255c82612535565b6125668185612540565b9350612576818560208601611788565b61257f816117b2565b840191505092915050565b600060a08201905061259f6000830188611d05565b6125ac6020830187611d05565b81810360408301526125be8186611c85565b905081810360608301526125d28185611c85565b905081810360808301526125e68184612551565b90509695505050505050565b600081519050612601816116b0565b92915050565b60006020828403121561261d5761261c61157c565b5b600061262b848285016125f2565b91505092915050565b60008160e01c9050919050565b600060033d11156126605760046000803e61265d600051612634565b90505b90565b600060443d106126f057612675611572565b60043d036004823e80513d602482011167ffffffffffffffff8211171561269d5750506126f0565b808201805167ffffffffffffffff8111156126bb57505050506126f0565b80602083010160043d0385018111156126d85750505050506126f0565b6126e782602001850186611852565b82955050505050505b90565b7f455243313135353a207472616e7366657220746f206e6f6e2d4552433131353560008201527f526563656976657220696d706c656d656e746572000000000000000000000000602082015250565b600061274f603483611777565b915061275a826126f3565b604082019050919050565b6000602082019050818103600083015261277e81612742565b9050919050565b7f455243313135353a204552433131353552656365697665722072656a6563746560008201527f6420746f6b656e73000000000000000000000000000000000000000000000000602082015250565b60006127e1602883611777565b91506127ec82612785565b604082019050919050565b60006020820190508181036000830152612810816127d4565b9050919050565b600060a08201905061282c6000830188611d05565b6128396020830187611d05565b612846604083018661165a565b612853606083018561165a565b81810360808301526128658184612551565b9050969550505050505056fea2646970667358221220227f0defe741adcf19d9dc8c6818b47e2bd64346121363270825e46d8d60ab6564736f6c6343000812003368747470733a2f2f676174657761792e70696e6174612e636c6f75642f697066732f516d57486f65796166737a6e5136514b71577655555a34736369764b68386a347934504d72796b3277386e4e34722f7b69647d2f6a736f6ea26469706673582212208352eac900a8c734def7e510cb434583f884283d84fb03f250a0fe2dcadcb28564736f6c63430008120033",
  "immutableReferences": {},
  "source": "// SPDX-License-Identifier: MIT\r\npragma solidity ^0.8.18;\r\n\r\nimport \"../../node_modules/@openzeppelin/contracts/token/ERC1155/ERC1155.sol\";\r\nimport \"../../node_modules/@openzeppelin/contracts/utils/Counters.sol\";\r\nimport \"../../node_modules/@openzeppelin/contracts/access/Ownable.sol\";\r\n\r\nimport \"./ForgeMaster.sol\";\r\n\r\ncontract ForgeFactory is Ownable {\r\n    function forgeCollection(\r\n        string memory collectionName\r\n    ) external returns (address collectionAddress) {\r\n        // Import the bytecode of the contract to deploy\r\n        bytes memory collectionBytecode = type(ForgeMaster).creationCode;\r\n        // Make a random salt based on the artist name\r\n        bytes32 salt = keccak256(abi.encodePacked(collectionName));\r\n\r\n        assembly {\r\n            collectionAddress := create2(\r\n                0,\r\n                add(collectionBytecode, 0x20),\r\n                mload(collectionBytecode),\r\n                salt\r\n            )\r\n            if iszero(extcodesize(collectionAddress)) {\r\n                // revert if something gone wrong (collectionAddress doesn't contain an address)\r\n                revert(0, 0)\r\n            }\r\n        }\r\n\r\n        ForgeMaster(collectionAddress);\r\n    }\r\n}\r\n",
  "sourcePath": "C:\\Users\\Alex\\Documents\\Travail\\Alyra\\NG-project\\contracts\\Forge\\ForgeFactory.sol",
  "compiler": {
    "name": "solc",
    "version": "0.8.18+commit.87f61d96.Emscripten.clang"
  },
  "schemaVersion": "3.4.7",
  "updatedAt": "2023-03-30T20:39:19.182Z",
  "networkType": "ethereum",
  "devdoc": {
    "kind": "dev",
    "methods": {
      "owner()": {
        "details": "Returns the address of the current owner."
      },
      "renounceOwnership()": {
        "details": "Leaves the contract without owner. It will not be possible to call `onlyOwner` functions anymore. Can only be called by the current owner. NOTE: Renouncing ownership will leave the contract without an owner, thereby removing any functionality that is only available to the owner."
      },
      "transferOwnership(address)": {
        "details": "Transfers ownership of the contract to a new account (`newOwner`). Can only be called by the current owner."
      }
    },
    "version": 1
  },
  "userdoc": {
    "kind": "user",
    "methods": {},
    "version": 1
  }
}