{
  "contractName": "TreasureGuardian",
  "abi": [
    {
      "inputs": [],
      "stateMutability": "nonpayable",
      "type": "constructor"
    },
    {
      "anonymous": false,
      "inputs": [
        {
          "indexed": true,
          "internalType": "address",
          "name": "previousOwner",
          "type": "address"
        },
        {
          "indexed": true,
          "internalType": "address",
          "name": "newOwner",
          "type": "address"
        }
      ],
      "name": "OwnershipTransferred",
      "type": "event"
    },
    {
      "inputs": [],
      "name": "factory",
      "outputs": [
        {
          "internalType": "contract IronForgeFactory",
          "name": "",
          "type": "address"
        }
      ],
      "stateMutability": "view",
      "type": "function",
      "constant": true
    },
    {
      "inputs": [],
      "name": "forgeMaster",
      "outputs": [
        {
          "internalType": "contract ForgeMaster",
          "name": "",
          "type": "address"
        }
      ],
      "stateMutability": "view",
      "type": "function",
      "constant": true
    },
    {
      "inputs": [
        {
          "internalType": "address",
          "name": "",
          "type": "address"
        },
        {
          "internalType": "address",
          "name": "",
          "type": "address"
        },
        {
          "internalType": "uint256[]",
          "name": "",
          "type": "uint256[]"
        },
        {
          "internalType": "uint256[]",
          "name": "",
          "type": "uint256[]"
        },
        {
          "internalType": "bytes",
          "name": "",
          "type": "bytes"
        }
      ],
      "name": "onERC1155BatchReceived",
      "outputs": [
        {
          "internalType": "bytes4",
          "name": "",
          "type": "bytes4"
        }
      ],
      "stateMutability": "nonpayable",
      "type": "function"
    },
    {
      "inputs": [
        {
          "internalType": "address",
          "name": "",
          "type": "address"
        },
        {
          "internalType": "address",
          "name": "",
          "type": "address"
        },
        {
          "internalType": "uint256",
          "name": "",
          "type": "uint256"
        },
        {
          "internalType": "uint256",
          "name": "",
          "type": "uint256"
        },
        {
          "internalType": "bytes",
          "name": "",
          "type": "bytes"
        }
      ],
      "name": "onERC1155Received",
      "outputs": [
        {
          "internalType": "bytes4",
          "name": "",
          "type": "bytes4"
        }
      ],
      "stateMutability": "nonpayable",
      "type": "function"
    },
    {
      "inputs": [],
      "name": "owner",
      "outputs": [
        {
          "internalType": "address",
          "name": "",
          "type": "address"
        }
      ],
      "stateMutability": "view",
      "type": "function",
      "constant": true
    },
    {
      "inputs": [],
      "name": "renounceOwnership",
      "outputs": [],
      "stateMutability": "nonpayable",
      "type": "function"
    },
    {
      "inputs": [
        {
          "internalType": "bytes4",
          "name": "interfaceId",
          "type": "bytes4"
        }
      ],
      "name": "supportsInterface",
      "outputs": [
        {
          "internalType": "bool",
          "name": "",
          "type": "bool"
        }
      ],
      "stateMutability": "view",
      "type": "function",
      "constant": true
    },
    {
      "inputs": [
        {
          "internalType": "address",
          "name": "newOwner",
          "type": "address"
        }
      ],
      "name": "transferOwnership",
      "outputs": [],
      "stateMutability": "nonpayable",
      "type": "function"
    }
  ],
  "bytecode": "0x60806040523480156200001157600080fd5b5062000032620000266200018b60201b60201c565b6200019360201b60201c565b604051620000409062000257565b604051809103906000f0801580156200005d573d6000803e3d6000fd5b50600260006101000a81548173ffffffffffffffffffffffffffffffffffffffff021916908373ffffffffffffffffffffffffffffffffffffffff1602179055506000600260009054906101000a900473ffffffffffffffffffffffffffffffffffffffff1673ffffffffffffffffffffffffffffffffffffffff16637f51b2dc6040518163ffffffff1660e01b8152600401620000fb90620002ec565b6020604051808303816000875af11580156200011b573d6000803e3d6000fd5b505050506040513d601f19601f8201168201806040525081019062000141919062000378565b905080600160006101000a81548173ffffffffffffffffffffffffffffffffffffffff021916908373ffffffffffffffffffffffffffffffffffffffff16021790555050620003aa565b600033905090565b60008060009054906101000a900473ffffffffffffffffffffffffffffffffffffffff169050816000806101000a81548173ffffffffffffffffffffffffffffffffffffffff021916908373ffffffffffffffffffffffffffffffffffffffff1602179055508173ffffffffffffffffffffffffffffffffffffffff168173ffffffffffffffffffffffffffffffffffffffff167f8be0079c531659141344cd1fd0a4f28419497f9722a3daafe3b4186f6b6457e060405160405180910390a35050565b613fea806200100e83390190565b600082825260208201905092915050565b7f4e6f646520477561726469616e732067656e6573697320636f6c6c656374696f60008201527f6e00000000000000000000000000000000000000000000000000000000000000602082015250565b6000620002d460218362000265565b9150620002e18262000276565b604082019050919050565b600060208201905081810360008301526200030781620002c5565b9050919050565b600080fd5b600073ffffffffffffffffffffffffffffffffffffffff82169050919050565b6000620003408262000313565b9050919050565b620003528162000333565b81146200035e57600080fd5b50565b600081519050620003728162000347565b92915050565b6000602082840312156200039157620003906200030e565b5b6000620003a18482850162000361565b91505092915050565b610c5480620003ba6000396000f3fe608060405234801561001057600080fd5b50600436106100885760003560e01c8063c45a01551161005b578063c45a015514610115578063f23a6e6114610133578063f2fde38b14610163578063f9de843f1461017f57610088565b806301ffc9a71461008d578063715018a6146100bd5780638da5cb5b146100c7578063bc197c81146100e5575b600080fd5b6100a760048036038101906100a2919061056d565b61019d565b6040516100b491906105b5565b60405180910390f35b6100c5610217565b005b6100cf61022b565b6040516100dc9190610611565b60405180910390f35b6100ff60048036038101906100fa919061089c565b610254565b60405161010c919061097a565b60405180910390f35b61011d610269565b60405161012a91906109f4565b60405180910390f35b61014d60048036038101906101489190610a0f565b61028f565b60405161015a919061097a565b60405180910390f35b61017d60048036038101906101789190610aa6565b6102a4565b005b610187610327565b6040516101949190610af4565b60405180910390f35b60007f4e2312e0000000000000000000000000000000000000000000000000000000007bffffffffffffffffffffffffffffffffffffffffffffffffffffffff1916827bffffffffffffffffffffffffffffffffffffffffffffffffffffffff19161480610210575061020f8261034d565b5b9050919050565b61021f6103b7565b6102296000610435565b565b60008060009054906101000a900473ffffffffffffffffffffffffffffffffffffffff16905090565b600063bc197c8160e01b905095945050505050565b600260009054906101000a900473ffffffffffffffffffffffffffffffffffffffff1681565b600063f23a6e6160e01b905095945050505050565b6102ac6103b7565b600073ffffffffffffffffffffffffffffffffffffffff168173ffffffffffffffffffffffffffffffffffffffff160361031b576040517f08c379a000000000000000000000000000000000000000000000000000000000815260040161031290610b92565b60405180910390fd5b61032481610435565b50565b600160009054906101000a900473ffffffffffffffffffffffffffffffffffffffff1681565b60007f01ffc9a7000000000000000000000000000000000000000000000000000000007bffffffffffffffffffffffffffffffffffffffffffffffffffffffff1916827bffffffffffffffffffffffffffffffffffffffffffffffffffffffff1916149050919050565b6103bf6104f9565b73ffffffffffffffffffffffffffffffffffffffff166103dd61022b565b73ffffffffffffffffffffffffffffffffffffffff1614610433576040517f08c379a000000000000000000000000000000000000000000000000000000000815260040161042a90610bfe565b60405180910390fd5b565b60008060009054906101000a900473ffffffffffffffffffffffffffffffffffffffff169050816000806101000a81548173ffffffffffffffffffffffffffffffffffffffff021916908373ffffffffffffffffffffffffffffffffffffffff1602179055508173ffffffffffffffffffffffffffffffffffffffff168173ffffffffffffffffffffffffffffffffffffffff167f8be0079c531659141344cd1fd0a4f28419497f9722a3daafe3b4186f6b6457e060405160405180910390a35050565b600033905090565b6000604051905090565b600080fd5b600080fd5b60007fffffffff0000000000000000000000000000000000000000000000000000000082169050919050565b61054a81610515565b811461055557600080fd5b50565b60008135905061056781610541565b92915050565b6000602082840312156105835761058261050b565b5b600061059184828501610558565b91505092915050565b60008115159050919050565b6105af8161059a565b82525050565b60006020820190506105ca60008301846105a6565b92915050565b600073ffffffffffffffffffffffffffffffffffffffff82169050919050565b60006105fb826105d0565b9050919050565b61060b816105f0565b82525050565b60006020820190506106266000830184610602565b92915050565b610635816105f0565b811461064057600080fd5b50565b6000813590506106528161062c565b92915050565b600080fd5b6000601f19601f8301169050919050565b7f4e487b7100000000000000000000000000000000000000000000000000000000600052604160045260246000fd5b6106a68261065d565b810181811067ffffffffffffffff821117156106c5576106c461066e565b5b80604052505050565b60006106d8610501565b90506106e4828261069d565b919050565b600067ffffffffffffffff8211156107045761070361066e565b5b602082029050602081019050919050565b600080fd5b6000819050919050565b61072d8161071a565b811461073857600080fd5b50565b60008135905061074a81610724565b92915050565b600061076361075e846106e9565b6106ce565b9050808382526020820190506020840283018581111561078657610785610715565b5b835b818110156107af578061079b888261073b565b845260208401935050602081019050610788565b5050509392505050565b600082601f8301126107ce576107cd610658565b5b81356107de848260208601610750565b91505092915050565b600080fd5b600067ffffffffffffffff8211156108075761080661066e565b5b6108108261065d565b9050602081019050919050565b82818337600083830152505050565b600061083f61083a846107ec565b6106ce565b90508281526020810184848401111561085b5761085a6107e7565b5b61086684828561081d565b509392505050565b600082601f83011261088357610882610658565b5b813561089384826020860161082c565b91505092915050565b600080600080600060a086880312156108b8576108b761050b565b5b60006108c688828901610643565b95505060206108d788828901610643565b945050604086013567ffffffffffffffff8111156108f8576108f7610510565b5b610904888289016107b9565b935050606086013567ffffffffffffffff81111561092557610924610510565b5b610931888289016107b9565b925050608086013567ffffffffffffffff81111561095257610951610510565b5b61095e8882890161086e565b9150509295509295909350565b61097481610515565b82525050565b600060208201905061098f600083018461096b565b92915050565b6000819050919050565b60006109ba6109b56109b0846105d0565b610995565b6105d0565b9050919050565b60006109cc8261099f565b9050919050565b60006109de826109c1565b9050919050565b6109ee816109d3565b82525050565b6000602082019050610a0960008301846109e5565b92915050565b600080600080600060a08688031215610a2b57610a2a61050b565b5b6000610a3988828901610643565b9550506020610a4a88828901610643565b9450506040610a5b8882890161073b565b9350506060610a6c8882890161073b565b925050608086013567ffffffffffffffff811115610a8d57610a8c610510565b5b610a998882890161086e565b9150509295509295909350565b600060208284031215610abc57610abb61050b565b5b6000610aca84828501610643565b91505092915050565b6000610ade826109c1565b9050919050565b610aee81610ad3565b82525050565b6000602082019050610b096000830184610ae5565b92915050565b600082825260208201905092915050565b7f4f776e61626c653a206e6577206f776e657220697320746865207a65726f206160008201527f6464726573730000000000000000000000000000000000000000000000000000602082015250565b6000610b7c602683610b0f565b9150610b8782610b20565b604082019050919050565b60006020820190508181036000830152610bab81610b6f565b9050919050565b7f4f776e61626c653a2063616c6c6572206973206e6f7420746865206f776e6572600082015250565b6000610be8602083610b0f565b9150610bf382610bb2565b602082019050919050565b60006020820190508181036000830152610c1781610bdb565b905091905056fea264697066735822122041bf9f955e0b8ba0c9634c31912b110f2b59ba0524274559608674e12322f01364736f6c63430008120033608060405234801561001057600080fd5b5061002d61002261003260201b60201c565b61003a60201b60201c565b6100fe565b600033905090565b60008060009054906101000a900473ffffffffffffffffffffffffffffffffffffffff169050816000806101000a81548173ffffffffffffffffffffffffffffffffffffffff021916908373ffffffffffffffffffffffffffffffffffffffff1602179055508173ffffffffffffffffffffffffffffffffffffffff168173ffffffffffffffffffffffffffffffffffffffff167f8be0079c531659141344cd1fd0a4f28419497f9722a3daafe3b4186f6b6457e060405160405180910390a35050565b613edd8061010d6000396000f3fe60806040523480156200001157600080fd5b5060043610620000885760003560e01c80638da5cb5b11620000635780638da5cb5b1462000105578063bc197c811462000127578063f23a6e61146200015d578063f2fde38b14620001935762000088565b806301ffc9a7146200008d578063715018a614620000c35780637f51b2dc14620000cf575b600080fd5b620000ab6004803603810190620000a591906200063e565b620001b3565b604051620000ba91906200068d565b60405180910390f35b620000cd62000230565b005b620000ed6004803603810190620000e791906200080c565b62000248565b604051620000fc9190620008a2565b60405180910390f35b6200010f62000327565b6040516200011e9190620008a2565b60405180910390f35b6200014560048036038101906200013f919062000aba565b62000350565b60405162000154919062000bb0565b60405180910390f35b6200017b600480360381019062000175919062000bcd565b62000365565b6040516200018a919062000bb0565b60405180910390f35b620001b16004803603810190620001ab919062000c74565b6200037a565b005b60007f4e2312e0000000000000000000000000000000000000000000000000000000007bffffffffffffffffffffffffffffffffffffffffffffffffffffffff1916827bffffffffffffffffffffffffffffffffffffffffffffffffffffffff19161480620002295750620002288262000404565b5b9050919050565b6200023a6200046e565b620002466000620004f3565b565b600080604051806020016200025d90620005bf565b6020820181038252601f19601f82011660405250905060008360405160200162000288919062000d1f565b604051602081830303815290604052805190602001209050808251602084016000f59250823b620002b857600080fd5b60008390508073ffffffffffffffffffffffffffffffffffffffff16631173e4cc6040518163ffffffff1660e01b8152600401600060405180830381600087803b1580156200030657600080fd5b505af11580156200031b573d6000803e3d6000fd5b50505050505050919050565b60008060009054906101000a900473ffffffffffffffffffffffffffffffffffffffff16905090565b600063bc197c8160e01b905095945050505050565b600063f23a6e6160e01b905095945050505050565b620003846200046e565b600073ffffffffffffffffffffffffffffffffffffffff168173ffffffffffffffffffffffffffffffffffffffff1603620003f6576040517f08c379a0000000000000000000000000000000000000000000000000000000008152600401620003ed9062000dbf565b60405180910390fd5b6200040181620004f3565b50565b60007f01ffc9a7000000000000000000000000000000000000000000000000000000007bffffffffffffffffffffffffffffffffffffffffffffffffffffffff1916827bffffffffffffffffffffffffffffffffffffffffffffffffffffffff1916149050919050565b62000478620005b7565b73ffffffffffffffffffffffffffffffffffffffff166200049862000327565b73ffffffffffffffffffffffffffffffffffffffff1614620004f1576040517f08c379a0000000000000000000000000000000000000000000000000000000008152600401620004e89062000e31565b60405180910390fd5b565b60008060009054906101000a900473ffffffffffffffffffffffffffffffffffffffff169050816000806101000a81548173ffffffffffffffffffffffffffffffffffffffff021916908373ffffffffffffffffffffffffffffffffffffffff1602179055508173ffffffffffffffffffffffffffffffffffffffff168173ffffffffffffffffffffffffffffffffffffffff167f8be0079c531659141344cd1fd0a4f28419497f9722a3daafe3b4186f6b6457e060405160405180910390a35050565b600033905090565b6130548062000e5483390190565b6000604051905090565b600080fd5b600080fd5b60007fffffffff0000000000000000000000000000000000000000000000000000000082169050919050565b6200061881620005e1565b81146200062457600080fd5b50565b60008135905062000638816200060d565b92915050565b600060208284031215620006575762000656620005d7565b5b6000620006678482850162000627565b91505092915050565b60008115159050919050565b620006878162000670565b82525050565b6000602082019050620006a460008301846200067c565b92915050565b600080fd5b600080fd5b6000601f19601f8301169050919050565b7f4e487b7100000000000000000000000000000000000000000000000000000000600052604160045260246000fd5b620006ff82620006b4565b810181811067ffffffffffffffff82111715620007215762000720620006c5565b5b80604052505050565b600062000736620005cd565b9050620007448282620006f4565b919050565b600067ffffffffffffffff821115620007675762000766620006c5565b5b6200077282620006b4565b9050602081019050919050565b82818337600083830152505050565b6000620007a56200079f8462000749565b6200072a565b905082815260208101848484011115620007c457620007c3620006af565b5b620007d18482856200077f565b509392505050565b600082601f830112620007f157620007f0620006aa565b5b8135620008038482602086016200078e565b91505092915050565b600060208284031215620008255762000824620005d7565b5b600082013567ffffffffffffffff811115620008465762000845620005dc565b5b6200085484828501620007d9565b91505092915050565b600073ffffffffffffffffffffffffffffffffffffffff82169050919050565b60006200088a826200085d565b9050919050565b6200089c816200087d565b82525050565b6000602082019050620008b9600083018462000891565b92915050565b620008ca816200087d565b8114620008d657600080fd5b50565b600081359050620008ea81620008bf565b92915050565b600067ffffffffffffffff8211156200090e576200090d620006c5565b5b602082029050602081019050919050565b600080fd5b6000819050919050565b620009398162000924565b81146200094557600080fd5b50565b60008135905062000959816200092e565b92915050565b6000620009766200097084620008f0565b6200072a565b905080838252602082019050602084028301858111156200099c576200099b6200091f565b5b835b81811015620009c95780620009b4888262000948565b8452602084019350506020810190506200099e565b5050509392505050565b600082601f830112620009eb57620009ea620006aa565b5b8135620009fd8482602086016200095f565b91505092915050565b600067ffffffffffffffff82111562000a245762000a23620006c5565b5b62000a2f82620006b4565b9050602081019050919050565b600062000a5362000a4d8462000a06565b6200072a565b90508281526020810184848401111562000a725762000a71620006af565b5b62000a7f8482856200077f565b509392505050565b600082601f83011262000a9f5762000a9e620006aa565b5b813562000ab184826020860162000a3c565b91505092915050565b600080600080600060a0868803121562000ad95762000ad8620005d7565b5b600062000ae988828901620008d9565b955050602062000afc88828901620008d9565b945050604086013567ffffffffffffffff81111562000b205762000b1f620005dc565b5b62000b2e88828901620009d3565b935050606086013567ffffffffffffffff81111562000b525762000b51620005dc565b5b62000b6088828901620009d3565b925050608086013567ffffffffffffffff81111562000b845762000b83620005dc565b5b62000b928882890162000a87565b9150509295509295909350565b62000baa81620005e1565b82525050565b600060208201905062000bc7600083018462000b9f565b92915050565b600080600080600060a0868803121562000bec5762000beb620005d7565b5b600062000bfc88828901620008d9565b955050602062000c0f88828901620008d9565b945050604062000c228882890162000948565b935050606062000c358882890162000948565b925050608086013567ffffffffffffffff81111562000c595762000c58620005dc565b5b62000c678882890162000a87565b9150509295509295909350565b60006020828403121562000c8d5762000c8c620005d7565b5b600062000c9d84828501620008d9565b91505092915050565b600081519050919050565b600081905092915050565b60005b8381101562000cdc57808201518184015260208101905062000cbf565b60008484015250505050565b600062000cf58262000ca6565b62000d01818562000cb1565b935062000d1381856020860162000cbc565b80840191505092915050565b600062000d2d828462000ce8565b915081905092915050565b600082825260208201905092915050565b7f4f776e61626c653a206e6577206f776e657220697320746865207a65726f206160008201527f6464726573730000000000000000000000000000000000000000000000000000602082015250565b600062000da760268362000d38565b915062000db48262000d49565b604082019050919050565b6000602082019050818103600083015262000dda8162000d98565b9050919050565b7f4f776e61626c653a2063616c6c6572206973206e6f7420746865206f776e6572600082015250565b600062000e1960208362000d38565b915062000e268262000de1565b602082019050919050565b6000602082019050818103600083015262000e4c8162000e0a565b905091905056fe60806040523480156200001157600080fd5b506040518060800160405280605a815260200162002ffa605a91396200003d816200006460201b60201c565b506200005e620000526200007960201b60201c565b6200008160201b60201c565b620004a8565b8060029081620000759190620003c1565b5050565b600033905090565b6000600360009054906101000a900473ffffffffffffffffffffffffffffffffffffffff16905081600360006101000a81548173ffffffffffffffffffffffffffffffffffffffff021916908373ffffffffffffffffffffffffffffffffffffffff1602179055508173ffffffffffffffffffffffffffffffffffffffff168173ffffffffffffffffffffffffffffffffffffffff167f8be0079c531659141344cd1fd0a4f28419497f9722a3daafe3b4186f6b6457e060405160405180910390a35050565b600081519050919050565b7f4e487b7100000000000000000000000000000000000000000000000000000000600052604160045260246000fd5b7f4e487b7100000000000000000000000000000000000000000000000000000000600052602260045260246000fd5b60006002820490506001821680620001c957607f821691505b602082108103620001df57620001de62000181565b5b50919050565b60008190508160005260206000209050919050565b60006020601f8301049050919050565b600082821b905092915050565b600060088302620002497fffffffffffffffffffffffffffffffffffffffffffffffffffffffffffffffff826200020a565b6200025586836200020a565b95508019841693508086168417925050509392505050565b6000819050919050565b6000819050919050565b6000620002a26200029c62000296846200026d565b62000277565b6200026d565b9050919050565b6000819050919050565b620002be8362000281565b620002d6620002cd82620002a9565b84845462000217565b825550505050565b600090565b620002ed620002de565b620002fa818484620002b3565b505050565b5b81811015620003225762000316600082620002e3565b60018101905062000300565b5050565b601f82111562000371576200033b81620001e5565b6200034684620001fa565b8101602085101562000356578190505b6200036e6200036585620001fa565b830182620002ff565b50505b505050565b600082821c905092915050565b6000620003966000198460080262000376565b1980831691505092915050565b6000620003b1838362000383565b9150826002028217905092915050565b620003cc8262000147565b67ffffffffffffffff811115620003e857620003e762000152565b5b620003f48254620001b0565b6200040182828562000326565b600060209050601f83116001811462000439576000841562000424578287015190505b620004308582620003a3565b865550620004a0565b601f1984166200044986620001e5565b60005b8281101562000473578489015182556001820191506020850194506020810190506200044c565b868310156200049357848901516200048f601f89168262000383565b8355505b6001600288020188555050505b505050505050565b612b4280620004b86000396000f3fe608060405234801561001057600080fd5b50600436106100b35760003560e01c8063715018a611610071578063715018a61461019e5780638da5cb5b146101a8578063a22cb465146101c6578063e985e9c5146101e2578063f242432a14610212578063f2fde38b1461022e576100b3565b8062fdd58e146100b857806301ffc9a7146100e85780630e89341c146101185780631173e4cc146101485780632eb2c2d6146101525780634e1273f41461016e575b600080fd5b6100d260048036038101906100cd9190611823565b61024a565b6040516100df9190611872565b60405180910390f35b61010260048036038101906100fd91906118e5565b610312565b60405161010f919061192d565b60405180910390f35b610132600480360381019061012d9190611948565b6103f4565b60405161013f9190611a05565b60405180910390f35b610150610488565b005b61016c60048036038101906101679190611c24565b6104cc565b005b61018860048036038101906101839190611db6565b61056d565b6040516101959190611eec565b60405180910390f35b6101a6610686565b005b6101b061069a565b6040516101bd9190611f1d565b60405180910390f35b6101e060048036038101906101db9190611f64565b6106c4565b005b6101fc60048036038101906101f79190611fa4565b6106da565b604051610209919061192d565b60405180910390f35b61022c60048036038101906102279190611fe4565b61076e565b005b6102486004803603810190610243919061207b565b61080f565b005b60008073ffffffffffffffffffffffffffffffffffffffff168373ffffffffffffffffffffffffffffffffffffffff16036102ba576040517f08c379a00000000000000000000000000000000000000000000000000000000081526004016102b19061211a565b60405180910390fd5b60008083815260200190815260200160002060008473ffffffffffffffffffffffffffffffffffffffff1673ffffffffffffffffffffffffffffffffffffffff16815260200190815260200160002054905092915050565b60007fd9b67a26000000000000000000000000000000000000000000000000000000007bffffffffffffffffffffffffffffffffffffffffffffffffffffffff1916827bffffffffffffffffffffffffffffffffffffffffffffffffffffffff191614806103dd57507f0e89341c000000000000000000000000000000000000000000000000000000007bffffffffffffffffffffffffffffffffffffffffffffffffffffffff1916827bffffffffffffffffffffffffffffffffffffffffffffffffffffffff1916145b806103ed57506103ec82610892565b5b9050919050565b60606002805461040390612169565b80601f016020809104026020016040519081016040528092919081815260200182805461042f90612169565b801561047c5780601f106104515761010080835404028352916020019161047c565b820191906000526020600020905b81548152906001019060200180831161045f57829003601f168201915b50505050509050919050565b6104906108fc565b6104ad33600a60646040518060200160405280600081525061097a565b6104ca33601460056040518060200160405280600081525061097a565b565b6104d4610b2a565b73ffffffffffffffffffffffffffffffffffffffff168573ffffffffffffffffffffffffffffffffffffffff16148061051a575061051985610514610b2a565b6106da565b5b610559576040517f08c379a00000000000000000000000000000000000000000000000000000000081526004016105509061220c565b60405180910390fd5b6105668585858585610b32565b5050505050565b606081518351146105b3576040517f08c379a00000000000000000000000000000000000000000000000000000000081526004016105aa9061229e565b60405180910390fd5b6000835167ffffffffffffffff8111156105d0576105cf611a2c565b5b6040519080825280602002602001820160405280156105fe5781602001602082028036833780820191505090505b50905060005b845181101561067b5761064b858281518110610623576106226122be565b5b602002602001015185838151811061063e5761063d6122be565b5b602002602001015161024a565b82828151811061065e5761065d6122be565b5b602002602001018181525050806106749061231c565b9050610604565b508091505092915050565b61068e6108fc565b6106986000610e53565b565b6000600360009054906101000a900473ffffffffffffffffffffffffffffffffffffffff16905090565b6106d66106cf610b2a565b8383610f19565b5050565b6000600160008473ffffffffffffffffffffffffffffffffffffffff1673ffffffffffffffffffffffffffffffffffffffff16815260200190815260200160002060008373ffffffffffffffffffffffffffffffffffffffff1673ffffffffffffffffffffffffffffffffffffffff16815260200190815260200160002060009054906101000a900460ff16905092915050565b610776610b2a565b73ffffffffffffffffffffffffffffffffffffffff168573ffffffffffffffffffffffffffffffffffffffff1614806107bc57506107bb856107b6610b2a565b6106da565b5b6107fb576040517f08c379a00000000000000000000000000000000000000000000000000000000081526004016107f29061220c565b60405180910390fd5b6108088585858585611085565b5050505050565b6108176108fc565b600073ffffffffffffffffffffffffffffffffffffffff168173ffffffffffffffffffffffffffffffffffffffff1603610886576040517f08c379a000000000000000000000000000000000000000000000000000000000815260040161087d906123d6565b60405180910390fd5b61088f81610e53565b50565b60007f01ffc9a7000000000000000000000000000000000000000000000000000000007bffffffffffffffffffffffffffffffffffffffffffffffffffffffff1916827bffffffffffffffffffffffffffffffffffffffffffffffffffffffff1916149050919050565b610904610b2a565b73ffffffffffffffffffffffffffffffffffffffff1661092261069a565b73ffffffffffffffffffffffffffffffffffffffff1614610978576040517f08c379a000000000000000000000000000000000000000000000000000000000815260040161096f90612442565b60405180910390fd5b565b600073ffffffffffffffffffffffffffffffffffffffff168473ffffffffffffffffffffffffffffffffffffffff16036109e9576040517f08c379a00000000000000000000000000000000000000000000000000000000081526004016109e0906124d4565b60405180910390fd5b60006109f3610b2a565b90506000610a0085611320565b90506000610a0d85611320565b9050610a1e8360008985858961139a565b8460008088815260200190815260200160002060008973ffffffffffffffffffffffffffffffffffffffff1673ffffffffffffffffffffffffffffffffffffffff1681526020019081526020016000206000828254610a7d91906124f4565b925050819055508673ffffffffffffffffffffffffffffffffffffffff16600073ffffffffffffffffffffffffffffffffffffffff168473ffffffffffffffffffffffffffffffffffffffff167fc3d58168c5ae7397731d063d5bbf3d657854427343f4c083240f7aacaa2d0f628989604051610afb929190612528565b60405180910390a4610b12836000898585896113a2565b610b21836000898989896113aa565b50505050505050565b600033905090565b8151835114610b76576040517f08c379a0000000000000000000000000000000000000000000000000000000008152600401610b6d906125c3565b60405180910390fd5b600073ffffffffffffffffffffffffffffffffffffffff168473ffffffffffffffffffffffffffffffffffffffff1603610be5576040517f08c379a0000000000000000000000000000000000000000000000000000000008152600401610bdc90612655565b60405180910390fd5b6000610bef610b2a565b9050610bff81878787878761139a565b60005b8451811015610db0576000858281518110610c2057610c1f6122be565b5b602002602001015190506000858381518110610c3f57610c3e6122be565b5b60200260200101519050600080600084815260200190815260200160002060008b73ffffffffffffffffffffffffffffffffffffffff1673ffffffffffffffffffffffffffffffffffffffff16815260200190815260200160002054905081811015610ce0576040517f08c379a0000000000000000000000000000000000000000000000000000000008152600401610cd7906126e7565b60405180910390fd5b81810360008085815260200190815260200160002060008c73ffffffffffffffffffffffffffffffffffffffff1673ffffffffffffffffffffffffffffffffffffffff168152602001908152602001600020819055508160008085815260200190815260200160002060008b73ffffffffffffffffffffffffffffffffffffffff1673ffffffffffffffffffffffffffffffffffffffff1681526020019081526020016000206000828254610d9591906124f4565b9250508190555050505080610da99061231c565b9050610c02565b508473ffffffffffffffffffffffffffffffffffffffff168673ffffffffffffffffffffffffffffffffffffffff168273ffffffffffffffffffffffffffffffffffffffff167f4a39dc06d4c0dbc64b70af90fd698a233a518aa5d07e595d983b8c0526c8f7fb8787604051610e27929190612707565b60405180910390a4610e3d8187878787876113a2565b610e4b818787878787611581565b505050505050565b6000600360009054906101000a900473ffffffffffffffffffffffffffffffffffffffff16905081600360006101000a81548173ffffffffffffffffffffffffffffffffffffffff021916908373ffffffffffffffffffffffffffffffffffffffff1602179055508173ffffffffffffffffffffffffffffffffffffffff168173ffffffffffffffffffffffffffffffffffffffff167f8be0079c531659141344cd1fd0a4f28419497f9722a3daafe3b4186f6b6457e060405160405180910390a35050565b8173ffffffffffffffffffffffffffffffffffffffff168373ffffffffffffffffffffffffffffffffffffffff1603610f87576040517f08c379a0000000000000000000000000000000000000000000000000000000008152600401610f7e906127b0565b60405180910390fd5b80600160008573ffffffffffffffffffffffffffffffffffffffff1673ffffffffffffffffffffffffffffffffffffffff16815260200190815260200160002060008473ffffffffffffffffffffffffffffffffffffffff1673ffffffffffffffffffffffffffffffffffffffff16815260200190815260200160002060006101000a81548160ff0219169083151502179055508173ffffffffffffffffffffffffffffffffffffffff168373ffffffffffffffffffffffffffffffffffffffff167f17307eab39ab6107e8899845ad3d59bd9653f200f220920489ca2b5937696c3183604051611078919061192d565b60405180910390a3505050565b600073ffffffffffffffffffffffffffffffffffffffff168473ffffffffffffffffffffffffffffffffffffffff16036110f4576040517f08c379a00000000000000000000000000000000000000000000000000000000081526004016110eb90612655565b60405180910390fd5b60006110fe610b2a565b9050600061110b85611320565b9050600061111885611320565b905061112883898985858961139a565b600080600088815260200190815260200160002060008a73ffffffffffffffffffffffffffffffffffffffff1673ffffffffffffffffffffffffffffffffffffffff168152602001908152602001600020549050858110156111bf576040517f08c379a00000000000000000000000000000000000000000000000000000000081526004016111b6906126e7565b60405180910390fd5b85810360008089815260200190815260200160002060008b73ffffffffffffffffffffffffffffffffffffffff1673ffffffffffffffffffffffffffffffffffffffff168152602001908152602001600020819055508560008089815260200190815260200160002060008a73ffffffffffffffffffffffffffffffffffffffff1673ffffffffffffffffffffffffffffffffffffffff168152602001908152602001600020600082825461127491906124f4565b925050819055508773ffffffffffffffffffffffffffffffffffffffff168973ffffffffffffffffffffffffffffffffffffffff168573ffffffffffffffffffffffffffffffffffffffff167fc3d58168c5ae7397731d063d5bbf3d657854427343f4c083240f7aacaa2d0f628a8a6040516112f1929190612528565b60405180910390a4611307848a8a86868a6113a2565b611315848a8a8a8a8a6113aa565b505050505050505050565b60606000600167ffffffffffffffff81111561133f5761133e611a2c565b5b60405190808252806020026020018201604052801561136d5781602001602082028036833780820191505090505b5090508281600081518110611385576113846122be565b5b60200260200101818152505080915050919050565b505050505050565b505050505050565b6113c98473ffffffffffffffffffffffffffffffffffffffff16611758565b15611579578373ffffffffffffffffffffffffffffffffffffffff1663f23a6e6187878686866040518663ffffffff1660e01b815260040161140f959493929190612825565b6020604051808303816000875af192505050801561144b57506040513d601f19601f820116820180604052508101906114489190612894565b60015b6114f0576114576128ce565b806308c379a0036114b3575061146b6128f0565b8061147657506114b5565b806040517f08c379a00000000000000000000000000000000000000000000000000000000081526004016114aa9190611a05565b60405180910390fd5b505b6040517f08c379a00000000000000000000000000000000000000000000000000000000081526004016114e7906129f2565b60405180910390fd5b63f23a6e6160e01b7bffffffffffffffffffffffffffffffffffffffffffffffffffffffff1916817bffffffffffffffffffffffffffffffffffffffffffffffffffffffff191614611577576040517f08c379a000000000000000000000000000000000000000000000000000000000815260040161156e90612a84565b60405180910390fd5b505b505050505050565b6115a08473ffffffffffffffffffffffffffffffffffffffff16611758565b15611750578373ffffffffffffffffffffffffffffffffffffffff1663bc197c8187878686866040518663ffffffff1660e01b81526004016115e6959493929190612aa4565b6020604051808303816000875af192505050801561162257506040513d601f19601f8201168201806040525081019061161f9190612894565b60015b6116c75761162e6128ce565b806308c379a00361168a57506116426128f0565b8061164d575061168c565b806040517f08c379a00000000000000000000000000000000000000000000000000000000081526004016116819190611a05565b60405180910390fd5b505b6040517f08c379a00000000000000000000000000000000000000000000000000000000081526004016116be906129f2565b60405180910390fd5b63bc197c8160e01b7bffffffffffffffffffffffffffffffffffffffffffffffffffffffff1916817bffffffffffffffffffffffffffffffffffffffffffffffffffffffff19161461174e576040517f08c379a000000000000000000000000000000000000000000000000000000000815260040161174590612a84565b60405180910390fd5b505b505050505050565b6000808273ffffffffffffffffffffffffffffffffffffffff163b119050919050565b6000604051905090565b600080fd5b600080fd5b600073ffffffffffffffffffffffffffffffffffffffff82169050919050565b60006117ba8261178f565b9050919050565b6117ca816117af565b81146117d557600080fd5b50565b6000813590506117e7816117c1565b92915050565b6000819050919050565b611800816117ed565b811461180b57600080fd5b50565b60008135905061181d816117f7565b92915050565b6000806040838503121561183a57611839611785565b5b6000611848858286016117d8565b92505060206118598582860161180e565b9150509250929050565b61186c816117ed565b82525050565b60006020820190506118876000830184611863565b92915050565b60007fffffffff0000000000000000000000000000000000000000000000000000000082169050919050565b6118c28161188d565b81146118cd57600080fd5b50565b6000813590506118df816118b9565b92915050565b6000602082840312156118fb576118fa611785565b5b6000611909848285016118d0565b91505092915050565b60008115159050919050565b61192781611912565b82525050565b6000602082019050611942600083018461191e565b92915050565b60006020828403121561195e5761195d611785565b5b600061196c8482850161180e565b91505092915050565b600081519050919050565b600082825260208201905092915050565b60005b838110156119af578082015181840152602081019050611994565b60008484015250505050565b6000601f19601f8301169050919050565b60006119d782611975565b6119e18185611980565b93506119f1818560208601611991565b6119fa816119bb565b840191505092915050565b60006020820190508181036000830152611a1f81846119cc565b905092915050565b600080fd5b7f4e487b7100000000000000000000000000000000000000000000000000000000600052604160045260246000fd5b611a64826119bb565b810181811067ffffffffffffffff82111715611a8357611a82611a2c565b5b80604052505050565b6000611a9661177b565b9050611aa28282611a5b565b919050565b600067ffffffffffffffff821115611ac257611ac1611a2c565b5b602082029050602081019050919050565b600080fd5b6000611aeb611ae684611aa7565b611a8c565b90508083825260208201905060208402830185811115611b0e57611b0d611ad3565b5b835b81811015611b375780611b23888261180e565b845260208401935050602081019050611b10565b5050509392505050565b600082601f830112611b5657611b55611a27565b5b8135611b66848260208601611ad8565b91505092915050565b600080fd5b600067ffffffffffffffff821115611b8f57611b8e611a2c565b5b611b98826119bb565b9050602081019050919050565b82818337600083830152505050565b6000611bc7611bc284611b74565b611a8c565b905082815260208101848484011115611be357611be2611b6f565b5b611bee848285611ba5565b509392505050565b600082601f830112611c0b57611c0a611a27565b5b8135611c1b848260208601611bb4565b91505092915050565b600080600080600060a08688031215611c4057611c3f611785565b5b6000611c4e888289016117d8565b9550506020611c5f888289016117d8565b945050604086013567ffffffffffffffff811115611c8057611c7f61178a565b5b611c8c88828901611b41565b935050606086013567ffffffffffffffff811115611cad57611cac61178a565b5b611cb988828901611b41565b925050608086013567ffffffffffffffff811115611cda57611cd961178a565b5b611ce688828901611bf6565b9150509295509295909350565b600067ffffffffffffffff821115611d0e57611d0d611a2c565b5b602082029050602081019050919050565b6000611d32611d2d84611cf3565b611a8c565b90508083825260208201905060208402830185811115611d5557611d54611ad3565b5b835b81811015611d7e5780611d6a88826117d8565b845260208401935050602081019050611d57565b5050509392505050565b600082601f830112611d9d57611d9c611a27565b5b8135611dad848260208601611d1f565b91505092915050565b60008060408385031215611dcd57611dcc611785565b5b600083013567ffffffffffffffff811115611deb57611dea61178a565b5b611df785828601611d88565b925050602083013567ffffffffffffffff811115611e1857611e1761178a565b5b611e2485828601611b41565b9150509250929050565b600081519050919050565b600082825260208201905092915050565b6000819050602082019050919050565b611e63816117ed565b82525050565b6000611e758383611e5a565b60208301905092915050565b6000602082019050919050565b6000611e9982611e2e565b611ea38185611e39565b9350611eae83611e4a565b8060005b83811015611edf578151611ec68882611e69565b9750611ed183611e81565b925050600181019050611eb2565b5085935050505092915050565b60006020820190508181036000830152611f068184611e8e565b905092915050565b611f17816117af565b82525050565b6000602082019050611f326000830184611f0e565b92915050565b611f4181611912565b8114611f4c57600080fd5b50565b600081359050611f5e81611f38565b92915050565b60008060408385031215611f7b57611f7a611785565b5b6000611f89858286016117d8565b9250506020611f9a85828601611f4f565b9150509250929050565b60008060408385031215611fbb57611fba611785565b5b6000611fc9858286016117d8565b9250506020611fda858286016117d8565b9150509250929050565b600080600080600060a0868803121561200057611fff611785565b5b600061200e888289016117d8565b955050602061201f888289016117d8565b94505060406120308882890161180e565b93505060606120418882890161180e565b925050608086013567ffffffffffffffff8111156120625761206161178a565b5b61206e88828901611bf6565b9150509295509295909350565b60006020828403121561209157612090611785565b5b600061209f848285016117d8565b91505092915050565b7f455243313135353a2061646472657373207a65726f206973206e6f742061207660008201527f616c6964206f776e657200000000000000000000000000000000000000000000602082015250565b6000612104602a83611980565b915061210f826120a8565b604082019050919050565b60006020820190508181036000830152612133816120f7565b9050919050565b7f4e487b7100000000000000000000000000000000000000000000000000000000600052602260045260246000fd5b6000600282049050600182168061218157607f821691505b6020821081036121945761219361213a565b5b50919050565b7f455243313135353a2063616c6c6572206973206e6f7420746f6b656e206f776e60008201527f6572206f7220617070726f766564000000000000000000000000000000000000602082015250565b60006121f6602e83611980565b91506122018261219a565b604082019050919050565b60006020820190508181036000830152612225816121e9565b9050919050565b7f455243313135353a206163636f756e747320616e6420696473206c656e67746860008201527f206d69736d617463680000000000000000000000000000000000000000000000602082015250565b6000612288602983611980565b91506122938261222c565b604082019050919050565b600060208201905081810360008301526122b78161227b565b9050919050565b7f4e487b7100000000000000000000000000000000000000000000000000000000600052603260045260246000fd5b7f4e487b7100000000000000000000000000000000000000000000000000000000600052601160045260246000fd5b6000612327826117ed565b91507fffffffffffffffffffffffffffffffffffffffffffffffffffffffffffffffff8203612359576123586122ed565b5b600182019050919050565b7f4f776e61626c653a206e6577206f776e657220697320746865207a65726f206160008201527f6464726573730000000000000000000000000000000000000000000000000000602082015250565b60006123c0602683611980565b91506123cb82612364565b604082019050919050565b600060208201905081810360008301526123ef816123b3565b9050919050565b7f4f776e61626c653a2063616c6c6572206973206e6f7420746865206f776e6572600082015250565b600061242c602083611980565b9150612437826123f6565b602082019050919050565b6000602082019050818103600083015261245b8161241f565b9050919050565b7f455243313135353a206d696e7420746f20746865207a65726f2061646472657360008201527f7300000000000000000000000000000000000000000000000000000000000000602082015250565b60006124be602183611980565b91506124c982612462565b604082019050919050565b600060208201905081810360008301526124ed816124b1565b9050919050565b60006124ff826117ed565b915061250a836117ed565b9250828201905080821115612522576125216122ed565b5b92915050565b600060408201905061253d6000830185611863565b61254a6020830184611863565b9392505050565b7f455243313135353a2069647320616e6420616d6f756e7473206c656e6774682060008201527f6d69736d61746368000000000000000000000000000000000000000000000000602082015250565b60006125ad602883611980565b91506125b882612551565b604082019050919050565b600060208201905081810360008301526125dc816125a0565b9050919050565b7f455243313135353a207472616e7366657220746f20746865207a65726f20616460008201527f6472657373000000000000000000000000000000000000000000000000000000602082015250565b600061263f602583611980565b915061264a826125e3565b604082019050919050565b6000602082019050818103600083015261266e81612632565b9050919050565b7f455243313135353a20696e73756666696369656e742062616c616e636520666f60008201527f72207472616e7366657200000000000000000000000000000000000000000000602082015250565b60006126d1602a83611980565b91506126dc82612675565b604082019050919050565b60006020820190508181036000830152612700816126c4565b9050919050565b600060408201905081810360008301526127218185611e8e565b905081810360208301526127358184611e8e565b90509392505050565b7f455243313135353a2073657474696e6720617070726f76616c2073746174757360008201527f20666f722073656c660000000000000000000000000000000000000000000000602082015250565b600061279a602983611980565b91506127a58261273e565b604082019050919050565b600060208201905081810360008301526127c98161278d565b9050919050565b600081519050919050565b600082825260208201905092915050565b60006127f7826127d0565b61280181856127db565b9350612811818560208601611991565b61281a816119bb565b840191505092915050565b600060a08201905061283a6000830188611f0e565b6128476020830187611f0e565b6128546040830186611863565b6128616060830185611863565b818103608083015261287381846127ec565b90509695505050505050565b60008151905061288e816118b9565b92915050565b6000602082840312156128aa576128a9611785565b5b60006128b88482850161287f565b91505092915050565b60008160e01c9050919050565b600060033d11156128ed5760046000803e6128ea6000516128c1565b90505b90565b600060443d1061297d5761290261177b565b60043d036004823e80513d602482011167ffffffffffffffff8211171561292a57505061297d565b808201805167ffffffffffffffff811115612948575050505061297d565b80602083010160043d03850181111561296557505050505061297d565b61297482602001850186611a5b565b82955050505050505b90565b7f455243313135353a207472616e7366657220746f206e6f6e2d4552433131353560008201527f526563656976657220696d706c656d656e746572000000000000000000000000602082015250565b60006129dc603483611980565b91506129e782612980565b604082019050919050565b60006020820190508181036000830152612a0b816129cf565b9050919050565b7f455243313135353a204552433131353552656365697665722072656a6563746560008201527f6420746f6b656e73000000000000000000000000000000000000000000000000602082015250565b6000612a6e602883611980565b9150612a7982612a12565b604082019050919050565b60006020820190508181036000830152612a9d81612a61565b9050919050565b600060a082019050612ab96000830188611f0e565b612ac66020830187611f0e565b8181036040830152612ad88186611e8e565b90508181036060830152612aec8185611e8e565b90508181036080830152612b0081846127ec565b9050969550505050505056fea264697066735822122068fc14e03e39ab37ba785e2f088bde2e6983e62972845351e6b1f64ffb141c7864736f6c6343000812003368747470733a2f2f676174657761792e70696e6174612e636c6f75642f697066732f516d57486f65796166737a6e5136514b71577655555a34736369764b68386a347934504d72796b3277386e4e34722f7b69647d2f6a736f6ea2646970667358221220da458021810f9b1668adee17e4c9416ccc3088d0ca75761e28dbad78a280635464736f6c63430008120033",
  "immutableReferences": {},
  "source": "// SPDX-License-Identifier: MIT\r\npragma solidity ^0.8.18;\r\n\r\nimport \"../node_modules/@openzeppelin/contracts/token/ERC1155/ERC1155.sol\";\r\nimport \"../node_modules/@openzeppelin/contracts/utils/Counters.sol\";\r\nimport \"../node_modules/@openzeppelin/contracts/access/Ownable.sol\";\r\nimport \"../node_modules/@openzeppelin/contracts/token/ERC1155/utils/ERC1155Holder.sol\";\r\n\r\nimport \"./Forge/ForgeMaster.sol\";\r\nimport \"./Forge/IronForgeFactory.sol\";\r\n\r\ncontract TreasureGuardian is Ownable, ERC1155Holder {\r\n    ForgeMaster public forgeMaster;\r\n    IronForgeFactory public factory;\r\n\r\n    constructor() {\r\n        factory = new IronForgeFactory();\r\n        address collectionAddress = factory.forgeCollection(\r\n            \"Node Guardians genesis collection\"\r\n        );\r\n        forgeMaster = ForgeMaster(collectionAddress);\r\n        // forgeMaster = new ForgeMaster();\r\n        // forgeMaster.forgeItems();\r\n    }\r\n}\r\n",
  "sourcePath": "C:\\Users\\Alex\\Documents\\Travail\\Alyra\\NG-project\\contracts\\TreasureGuardians.sol",
  "compiler": {
    "name": "solc",
    "version": "0.8.18+commit.87f61d96.Emscripten.clang"
  },
  "schemaVersion": "3.4.7",
  "updatedAt": "2023-03-31T08:51:24.118Z",
  "networkType": "ethereum",
  "devdoc": {
    "kind": "dev",
    "methods": {
      "owner()": {
        "details": "Returns the address of the current owner."
      },
      "renounceOwnership()": {
        "details": "Leaves the contract without owner. It will not be possible to call `onlyOwner` functions anymore. Can only be called by the current owner. NOTE: Renouncing ownership will leave the contract without an owner, thereby removing any functionality that is only available to the owner."
      },
      "supportsInterface(bytes4)": {
        "details": "See {IERC165-supportsInterface}."
      },
      "transferOwnership(address)": {
        "details": "Transfers ownership of the contract to a new account (`newOwner`). Can only be called by the current owner."
      }
    },
    "version": 1
  },
  "userdoc": {
    "kind": "user",
    "methods": {},
    "version": 1
  }
}